:020000040800F2
:1000000000C00020795D00084D5000084F500008E6
:1000100051500008535000085550000800000000DF
:100020000000000000000000000000005750000821
:1000300059500008000000005B5000085D500008A7
:10004000C95D0008C95D0008C95D0008C95D0008F8
:10005000C95D0008C95D0008C95D0008C95D0008E8
:10006000C95D0008C95D0008C95D0008C95D0008D8
:10007000C95D000867500008C95D0008C95D000837
:10008000C95D0008C95D0008C95D0008C95D0008B8
:10009000C95D0008C95D0008C95D0008C95D0008A8
:1000A000C95D0008C95D0008C95D0008C95D000898
:1000B000C95D0008C95D0008C95D0008C95D000888
:1000C000C95D0008C95D0008C95D0008C95D000878
:1000D000C95D0008C95D0008C95D0008C95D000868
:1000E000C95D0008C95D0008C95D0008C95D000858
:1000F000C95D0008C95D0008C95D0008C95D000848
:10010000C95D0008C95D0008C95D0008C95D000837
:10011000C95D0008C95D0008C95D00086550000898
:10012000C95D0008C95D0008C95D0008C95D000817
:100140000348044B834202D0034B03B11847704766
:10015000D0010020D0010020000000000548064B1F
:100160001B1AD90F01EBA301491002D0034B03B1B5
:1001700018477047D0010020D00100200000000087
:1001800010B5064C237843B9FFF7DAFF044B13B1DF
:100190000448AFF300800123237010BDD00100207C
:1001A00000000000CC5D000808B5044B1BB10449F9
:1001B0000448AFF30080BDE80840CFE7000000002E
:1001C000D4010020CC5D000870B50F4B0F4DAB4241
:1001D000A3EB050607D0B610002455F8043B013404
:1001E0009847A642F9D805F0F1FD094D094B5E1B71
:1001F000AB424FEAA60606D0002455F8043B013472
:100200009847A642F9D870BD14620008146200082D
:100210001462000818620008F8B5036A846807468B
:100220000E46002B3AD0A3891B0718D52369B3B11A
:10023000013EA36816F8015F013BA360EDB1002BFE
:1002400008DAD4F818C09C452246294638460FDC07
:100250000A2D0DD023685A1C22601D70E9E7214643
:10026000384601F0D5FE0028E2D04FF0FF30F8BD4F
:1002700002F0F0FB0130DCD1F7E7002B08DA224670
:100280000A21384602F0E6FB0130EED00A20F8BD24
:1002900023680A22591C21601A70F7E700F0F4F86D
:1002A000C1E700BF024B01461868FFF7B5BF00BFAA
:1002B0000C00002000207047024A0349034801F067
:1002C00085BE00BF0000002091060008100000203D
:1002D0000C4B4168994210B5044601D000F0D8F9A2
:1002E000A168094B994202D0204600F0D1F9E1689B
:1002F000064B994204D02046BDE8104000F0C8B932
:1003000010BD00BFEC01002054020020BC02002000
:10031000002070472DE9F8432A4C2B49DFF8AC90B8
:10032000DFF8AC802B4FC4F83811002504230822D5
:10033000294604F15C00284EE360C4E90055C4E995
:100340000455A5606566A56100F0C6F8234B636798
:100350000822294604F1C400C4E90849C4E90A870F
:10036000C4E91A55C4E91E552567C4F8CC50C4F831
:100370008050266300F0B0F8194BC4F8DC302946F1
:1003800004F16803082204F59670C4F88830C4E9C3
:100390002398C4E92576C4E93455C4E93855C4F82E
:1003A000D850C4F83451C4F8E85000F095F804F17E
:1003B000D003C4E93D98C4E93F76C4F8F030BDE805
:1003C000F88300BFEC010020B9020008493600089C
:1003D00071360008B1360008D53600080900010062
:1003E00012000200F8B5254BD3F838310646002B31
:1003F0003CD0234FD7E90134013B04D51DE05A1C02
:1004000004F1680419D0B4F90C50013B002DF6D169
:100410001C4BE360C4E90155C4E9045565662560D9
:10042000A5610822294604F15C0000F055F8C4E9F2
:100430000D55C4E912552046F8BD3D680DB12F4653
:10044000D8E74FF4D671304600F0F4FC044680B192
:100450000423C0E900530C302946A0604FF4D07249
:10046000254600F039F83C602F46C3E7FFF752FFFE
:10047000BFE70C2338603360DDE700BFEC010020EC
:10048000000000200100FFFF036A03B17047044B26
:10049000044AD3F838310262002BF7D13AE700BFA3
:1004A000EC010020D1020008704700BF704700BF78
:1004B000024A0349002001F089BD00BF000000206E
:1004C000B5020008024A0349002001F07FBD00BFC9
:1004D0000000002011030008830730B547D0541EE8
:1004E000002A3ED0CAB2034601E0013C39D303F8EA
:1004F000012B9D07F9D1032C2CD9CDB205EB052595
:100500000F2C05EB054535D9A4F1100222F00F0C94
:1005100003F1100EE6444FEA121C1A46C2E90055D8
:10052000C2E9025510327245F8D10CF1010214F003
:100530000C0F03EB021204F00F0C13D0ACF1040308
:1005400023F003030433134442F8045B9342FBD1CA
:100550000CF003042CB1C9B21C4403F8011BA342E4
:10056000FBD130BD64461346002CF4D1F9E70346B5
:100570001446C0E71A46A446E0E700BFF8B5B1F953
:100580000C301E070C46074639D44A68002A53DD52
:10059000E56A002D31D000223E683A6013F48052A3
:1005A000216A55D101233846A847451C024663D02D
:1005B000B4F90C30E56A216A580705D56368D21A88
:1005C000636B0BB1236CD21A00233846A847421C38
:1005D00040D00023636023692360A389DB0400D536
:1005E0006065616B3E6041B104F14403994202D001
:1005F000384601F08DFC002363630020F8BD0E69CE
:10060000002EFAD09B070D6808BF4B690E6018BF1B
:100610000023AD1B8B600CE0D4F828C0216A2B4668
:1006200032463846E047B0F1000CA5EB0C056644B5
:1006300006DD002DF0DCE0E70A6C002AA8DCDCE730
:10064000B4F90C3043F04003A3814FF0FF30F8BD04
:10065000626DB1E73968B4F90C301D29F2D80B4A44
:10066000CA40D507EED52269226000226260DA0412
:10067000B7D50029B4D0B4E73B68002B98D01D2B28
:1006800001D0162BDCD13E60B7E700BF010040204F
:100690000B69B3B110B5044682B008B1036A5BB10F
:1006A000B1F90C3013B9002002B010BD204602B0E1
:1006B000BDE81040FFF762BF0191FFF7E5FE019929
:1006C000EEE70020704700BFB8B138B50D4A0369A6
:1006D000156804462BB10DB12B6A53B1B4F90C3037
:1006E0000BB9002038BD21462846BDE83840FFF749
:1006F00045BF2846FFF7C8FEF0E7034A0349044810
:1007000001F064BC0C0000200000002091060008ED
:10071000100000202DE9F04D1D4688B0002D109EE0
:10072000129BDDF85080144641DB0022B8F1650FC2
:100730001A7039D040DCB8F1450F35D0B8F1460F0A
:100740005FD103230093139BCDE9016307AB0493AF
:1007500006AB039322462B4600F084FC074628F0A4
:100760002003462B07EB060805D13B78302B3CD005
:10077000139B1E68B044204629460022002304F043
:1007800047F900283BD1079B984506D930215A1CD0
:1007900007921970079B4345F9D3159ADB1B38461E
:1007A000136008B0BDE8F08D01360223CAE705F1F9
:1007B000004B2D225D46B9E7B8F1660FC1D0139BFF
:1007C000CDE9016307AB049306AB039302230093C7
:1007D00022462B4600F046FCB8F1670F0746BED113
:1007E000119BDB0721D4079BD7E70022002320467B
:1007F000294604F00DF9D8B1139B1B689844434671
:10080000CBE7139BCDE9016307AB049306AB0393DE
:100810000223009322462B4600F024FCB8F1470F38
:1008200007469CD1119BDB07DDD507EB0608A2E745
:10083000139BC6F101061E609CE700BF70B500293E
:10084000BABF49422D232B23092982B0027043707D
:100850002BDD0DF10704194DA446A5FB0123DB0890
:1008600003EB8302A1EB42028E463032BEF1630FEE
:1008700066460CF8012C19460CF1FF3CEDDCB31E6A
:100880003031A3420CF8011C00F102050AD2421CCF
:1008900013F8011B02F8011FA342F9D10DF109035E
:1008A0009B1B1D44281A02B070BD30231944051D3E
:1008B0008370C170281A02B070BD00BFCDCCCCCC03
:1008C0002DE9F04F91B00C46DDF8688016461F46C2
:1008D000054602F005FF03680A93184603F0B0F8D6
:1008E00000230E93D8F800300B90073323F0070352
:1008F00003F10802D4F800A094F818B0C8F800205A
:10090000D3E9008929F000430993CDF82080C4E998
:100910001289DDE90801A14B4FF0FF3204F0AAF87B
:1009200040B9DDE908019D4B4FF0FF3204F084F837
:10093000002877D042464B464046494604F09AF894
:10094000002840F035826268511C4AF480630BF045
:10095000DF0A35D0BAF1470F00F02881002100925C
:10096000236006910EA905910DA903910DF13301A4
:1009700001934246CDF810B04B4602912846FFF74E
:10098000C9FE8046BBF1650F0D993AD9BBF1660FE0
:1009900000F02E810E9B8B4240F335810029D4BF9D
:1009A000C1F10202012213442361A1654FF0000A44
:1009B0009DF83330002B4DD02D2384F8433049E08F
:1009C000062123600193CDF810B0616000910021F1
:1009D00006910EA905910DA903910DF1330142462F
:1009E0004B4602912846FFF795FEBAF1470F804625
:1009F000C8D10D99C81C80F2F480ABF1020B5FFAEC
:100A00008BFB01395A4604F150000D91FFF716FF98
:100A10000E9A1318012A8246236140F33C81013368
:100A20002361C5E7404649460022002303F0FAFF50
:100A300010B12D2384F843302AF00403584A236070
:100A4000584BBBF1470F8CBF904698460323236158
:100A50004FF0000A009733460FAA2146284601F0BE
:100A6000E3FB013023D0236858052BD42369424689
:100A700031462846B847013019D02268E0680F9BFC
:100A8000920719D5984217DD4FF0000804F11909B3
:100A900004E0E0680F9BC21A42450DDD01234A467F
:100AA00031462846B847013008F10108F1D14FF02E
:100AB000FF3011B0BDE8F08F9842B8BF184611B0B2
:100AC000BDE8F08FBBF1650F33D9D4E912010022E4
:100AD000002303F09DFF002800F09D80324A01238F
:100AE00031462846B8470130E1D0DDE90D3A53459B
:100AF00002DB2268D107C1D5DDE90A233146284649
:100B0000B8470130D3D0BAF1010FB6DD0AF1FF3A90
:100B10004FF0000804F11A0901E0D045ADD00123DF
:100B20004A4631462846B847013008F10108F4D159
:100B3000BDE7DDF83890B9F1010F40F39D80012346
:100B4000424631462846B8470130B0D0DDE90A2395
:100B500031462846B8470130A9D0D4E91201002215
:100B6000002309F1FF3B03F053FF002800F09880B9
:100B7000B9F1010F40F38B804FF0000804F11A091E
:100B800002E0D84500F0838001234A4631462846DA
:100B9000B847013008F10108F3D188E7FFFFEF7F84
:100BA000D8600008D4600008E46000080AB9012297
:100BB000626000210092236006910EA905910DA9A3
:100BC00003910DF13301019342460291CDF810B02B
:100BD0004B462846FFF79EFD0D998046C81CFFF640
:100BE0000CAF636899423FF708AF4FF0670BD1E64F
:100BF0000029636858DD2161002B00F087800133F4
:100C00000B442361D1E623682161DB077FF5CDAE7C
:100C10004B1C2361C9E60D9B002B4CDD0E9BD4F8C9
:100C200058B008935B459946A8BFD946B9F1000F63
:100C300009DD4B46424631462846B84701303FF46D
:100C400036AFD4F858B029EAE97293456BDD4FF01E
:100C5000000A04F11A09934604E0A36DA3EB0B020A
:100C600052455FDD01234A4631462846B8470130E8
:100C70000AF1010AF1D11AE7D9073FF560AF424600
:100C8000012331462846B84701303FF410AF5346A0
:100C900004F15002ECE62268D2077FF589AEBEE689
:100CA0005B4608F10102ECE7002B34D12268D20741
:100CB00031D4012378E64A4A012331462846B84711
:100CC00001303FF4F4AEDDE90D3A5AEA030324D0D3
:100CD000DDE90A2331462846B84701303FF4E7AE44
:100CE0000D9B002B79DA4FF0000B04F11A0903E099
:100CF0000D9B5B425B4570DD01234A463146284629
:100D0000B84701300BF1010BF2D1D0E62268D007D1
:100D10007FF54BAE73E7023346E62268D3077FF5D3
:100D2000ADAED5E79B460D9B089A9A4202DC22683D
:100D3000D00708D5DDE90A2331462846B8470130F7
:100D40003FF4B5AE0D9B089AA2EB0B0AD31A9A4555
:100D5000A8BF9A46BAF1000F91460BDD08EB0B02D3
:100D6000534631462846B84701303FF4A0AE0D9BAC
:100D70004A46D31A2AEAEA7A53457FF77EAEDDF86F
:100D800020B04FF0000804F11A0907E00D9BABEB0F
:100D90000303A3EB0A0343457FF76FAE01234A46E3
:100DA00031462846B847013008F10108EED17EE609
:100DB0004B46002BBCBF2D2384F843302AF004039C
:100DC000084A2360084BBBF1470F8CBF90469846FA
:100DD000032323614FF0000A3CE65346424647E6B0
:100DE000E4600008E0600008DC60000870B5104EA8
:100DF000336805460C46B3B12146284602F012FC82
:100E0000431C0CD0C41C24F00304A04205D0211ABA
:100E1000284602F007FC013001D0204670BD4FF09B
:100E2000FF34204670BD194602F0FCFB3060E3E75A
:100E3000280300202DE9F843CD1C25F003050835D3
:100E40000C2D38BF0C25002D064618DBA94216D8FC
:100E5000DFF8DC8001F0BCFBD8F80420A2B1144616
:100E600003E0636822467BB11C4623685B1BF8D411
:100E70000B2B1FD89442636854D053600CE00C23B2
:100E800033600020BDE8F88329463046FFF7AEFF07
:100E9000431C044619D00560304601F09BFB04F169
:100EA0000B00231D20F00700C21A1CBF1B1AA35001
:100EB000BDE8F88361199442256014BF5160C8F8F9
:100EC0000410635163684B60E6E7D8F804701FB301
:100ED0003C467F68002FFBD123683946304604EB3F
:100EE000030902F09FFB814516D12368ED1A2946BC
:100EF0003046FFF77BFF01300ED02368D8F804207E
:100F00002B442360536883B1A34203D01A465B6825
:100F10009C42FBD10023B0E70C233360304601F044
:100F200059FBAEE7C8F80430B6E7C8F80470B3E779
:100F300028030020000000002DE9F04F03690C6930
:100F4000A34283B0C0F28A80013C01F1140500F194
:100F5000140855F8243058F8242001339A428E465C
:100F600081464FEA840105EB840708EB840AB2FB53
:100F7000F3F63AD3CDE900150022AC4640461346BD
:100F80005CF8041B05681FFA81FB06FB0B22090CA9
:100F90004FEA124B06FB01BB92B2A9B2891A19445F
:100FA0001FFA8BF3C3EB214303EB154389B241EAEC
:100FB0000341674540F8041B4FEA1B424FEA2343B5
:100FC000DED2DDE9001558F8013073B9AAF1040A40
:100FD000D04504D307E0D04504F1FF3403D25AF8DA
:100FE0000439002BF7D0C9F810407146484602F08A
:100FF000B5F800282EDB4146002255F8040BD1F845
:1010000000C01FFA80FE1FFA8CF3A3EB0E031344FB
:10101000020CC2EB234202EB1C429BB243EA0243A6
:10102000AF4241F8043B4FEA2242E6D258F824206E
:1010300008EB84036AB9043B434504D807E09845AC
:1010400004F1FF3403D253F80429002AF7D0C9F879
:1010500010400136304603B0BDE8F08F002003B0E9
:10106000BDE8F08F2DE9F04FC5699BB016461F46CD
:10107000CDE90667279C0490002D00F0B483296811
:1010800051B16A684A60012393408B6001F098FD7A
:10109000049BDB6900221A60B7F10009B4BF012389
:1010A00000232360784BBCBF29F00049CDF81C9089
:1010B00033EA090300F0AE80DDE906340022184669
:1010C00021460023CDE9020103F0A2FC804668B16D
:1010D000269A01231360289B13B1289A6B4B136047
:1010E0006B4B059305981BB0BDE8F08F18AB0193CF
:1010F00019AB00930498DDE9022302F091F95FEA4D
:101100001955824640F09C80DDE91885454405F27A
:101110003243202B40F39C83C3F1400309FA03F9C7
:1011200005F2124326FA03F349EA030003F08EF9AD
:101130000123013DA1F1F8711093564B002203F0F9
:1011400047F84BA3D3E9002303F0FAF94AA3D3E904
:10115000002303F03FF8064628460F4603F086F9C1
:1011600047A3D3E9002303F0EBF902460B463046D0
:10117000394603F02FF806460F4603F091FC002293
:101180000446089000233046394603F04BFC002803
:1011900040F03783089CA8EB0508162C08F1FF3BAC
:1011A00000F215833C4B03EBC403D3E90023DDE9D4
:1011B000020103F037FC002874D0631E0893BBF1D2
:1011C000000F4FF000030F93C0F2078300230A9330
:1011D000089B002B6CDA089B0A9A0B93D21A0A928E
:1011E0005A4200230893249B0E92092B68D8052BA2
:1011F000C4BF043B2493249BA3F10203CCBF00256E
:101200000125032B00F24786DFE813F07D047A0402
:1012100071045304269AC9F3130942F20F7359EA71
:10122000060913601CD1289B002B00F02B861B4B5A
:1012300005930833289A059813601BB0BDE8F08F1A
:10124000DDE90212C2F31303084643F07F51CDF8E3
:101250004080A5F2FF35DDF8608041F440116CE775
:10126000289B002B40F001840D4B05933AE700BF0B
:1012700061436F63A787D23FB3C8608B288AC63F9C
:10128000FB799F501344D33F0000F07FE5600008D6
:10129000E46000080000F83F105E0008E860000805
:1012A000F4600008B8F1000F40F3AF840F900A908B
:1012B000089B0B939B4400230E93249B092B96D9E8
:1012C0000023CDE9243301254FF0FF330C9509931A
:1012D000049BDB6900215960099B1193049801F07C
:1012E0002FFC0590002800F0DF85049B059ADB6940
:1012F0001A60099B0E2B00F20D81002D00F00A816F
:101300000B99002940F35184AE4B01F00F0203EB1F
:10131000C203C805D3E900894FEA211540F11584BD
:10132000A94BDDE90201D3E9082303F033FACDE943
:10133000120105F00F0503277DB1A34EE90708D57B
:1013400040464946D6E9002303F0FAF801378046C3
:1013500089466D1006F10806F0D142464B46DDE99C
:10136000120103F017FA804689460F9B43B1974B51
:1013700000224046494603F055FB002840F0148502
:10138000384603F073F842464B4603F0D9F8904BC9
:10139000002202F01FFFA1F15073CDE91201139357
:1013A000099B002B00F09D800B9B1793099B1693C4
:1013B0004946404603F074FB8249169C01EBC40386
:1013C00053E902120546CDE9141203F04FF80B461B
:1013D00002464946404602F0FBFE059F0C9B303515
:1013E0007E1CECB2804689463546002B00F07284A4
:1013F000DDE914237749002003F0CCF9DDE912235D
:1014000002F0E6FE3C7042464B4604460D4603F0B1
:1014100027FB002840F0BC84CDF850B00027DDF851
:1014200058B0CDF848A02BE001375F4580F2048525
:10143000694B20462946002203F082F8664B0022C1
:1014400004460D464046494603F07AF889468046F0
:1014500003F026FB824603F009F802460B4640469D
:10146000494602F0B5FE0AF1300A06F801AB224601
:101470002B468046894603F0D5FA002840F0D984EF
:1014800042464B465149002002F0A2FE22462B461E
:1014900003F0C8FA0028C7D0179BDDF848A0059ACA
:1014A000374603F1010802E0974200F0A3843E466C
:1014B00017F8013D392BF7D00133DBB23B704546BD
:1014C00074E1384602F0D2FF42464B4603F038F84A
:1014D0003F4B002202F07EFEA1F15073CDE91201D4
:1014E00013933E4B00224046494602F071FEDDE96F
:1014F000124522462B4606460F4603F0B1FA002855
:1015000040F0878430463946224605F1004303F017
:1015100089FA28BB199B002BC0F292800B9A0E2AE5
:1015200000F38E80274B0B9A03EBC203D3E9003400
:10153000CDE90634259B002B19DA099B002B16DC1C
:101540000ED1264B0022DDE9060102F0F9FF02462A
:101550000B46DDE9020103F06FFA002800F0598420
:101560000023059E02931F46259BDD4344E2059B15
:101570005D1CDDE90678DDE902013A46434603F0E9
:1015800009F903F08DFA064602F070FF3A46434629
:1015900002F0D6FF02460B46DDE9020102F018FE1A
:1015A000059A06F130031370099B012B2F4600F0BA
:1015B00037830125CDF808A0A846DDE906AB99469A
:1015C0002CE000BF105E0008005F00080000F03F44
:1015D00000001C400000E03F0000244000001440D8
:1015E00052465B462046294603F0D4F803F058FAE9
:1015F000064602F03BFF52465B4602F0A1FF08F1AF
:1016000001080B4602462946204602F0E1FD06F19C
:101610003003C84507F8013B00F000838F4B0022E0
:1016200002F08EFF0022002304460D4603F0F0F97D
:101630000028D5D00B9DDDF808A001353E46B5E069
:101640000C9A002A40F0F18000230E9E0A9D0C9314
:101650001F4665B1BBF1000F09DD5D450A9A2B46B7
:10166000A8BF5B46D21A0A92ED1AABEB030B0E9B96
:1016700053B10C9B13B1002E40F00B8351460E9AD0
:10168000049801F087FC82460498012101F0B6FB22
:10169000089B0290002B40F0D381249B012B40F348
:1016A000E9810120584410F01F0000F0B780C0F11C
:1016B0002003042B40F3F8810A9BC0F11C00034473
:1016C0000A93054483440A9B002B05DD5146049888
:1016D0001A4601F0CFFC8246BBF1000F05DD0299EE
:1016E00004985A4601F0C6FC02900F9B002B40F074
:1016F0008C81099B002B40F364810C9B002B40F0F4
:10170000BC800B9D0135DDF81480029CDDF824B00F
:10171000DDF81090012607E0514600230A224846D2
:1017200001F072FA0136824621465046FFF704FC6A
:10173000B34500F1300008F8010BEDDC099B002BEC
:10174000C8BF1E46059BD8BF0126814603EB060B8A
:10175000002451460122049801F08CFC0299824633
:1017600001F0FCFC002840F30382059A02E0934557
:1017700000F016825E460BF1FF3B16F8013C392B58
:10178000F5D001338BF80030DDF810800299404627
:1017900001F016FA57B12CB1BC4203D021464046A5
:1017A00001F00EFA0498394601F00AFA04985146FD
:1017B00001F006FA00233370269B1D60289B002B46
:1017C0003FF490AC05981E601BB0BDE8F08F01237C
:1017D000BBF1000F0F93BFF6F9ACC8F101030A93F8
:1017E0004FF0000BF4E4102000F00EFD049B0246C5
:1017F000D861002800F04A83C0E90055C0E90255CD
:101800004AE4204602F032FE32463B4603F000F93D
:1018100000287FF4BFAC631E0893BBE41C230A9A24
:101820001A440A921D449B444DE7249A012A40F32E
:10183000AA81099A0E9B561EB342C0F26781002A04
:10184000A3EB060680F2E982DDE909239D1A6AE12D
:10185000C3F1200306FA03F068E400BF000024404F
:101860003946002304980A2201F0CEF9119B002B7F
:10187000074640F3FB820B960993002D05DD3946A0
:1018800004982A4601F0F6FB0746089B002B40F01F
:10189000E481B846059E099C731E1C44069B0A946D
:1018A00003F00103049C0C9302995046FFF744FB9C
:1018B00039468346504601F051FC0299054642469E
:1018C000204601F06BFCC3680BF130090146ABBB4D
:1018D0000990504601F042FC09990890204601F019
:1018E0006FF9089A002A54D1249B1BB90C9B002B3A
:1018F00000F0A882002D3FDB0A9BB346B3420BF8F1
:10190000019B00F0C181514600230A22204601F0CC
:101910007BF94745824639464FF000034FF00A02F3
:10192000204630D001F070F94146074600230A22D4
:10193000204601F069F95E468046B5E7049801F05B
:101940003FF9002D06DB069B03F00102249B1D439B
:101950002A4329D151460122049801F08BFB0299B8
:10196000824601F0FBFB002840F3F680B9F1390F05
:1019700000F045820BF131090B9D06F8019B3C46B6
:101980000135474600E701F03FF95E4607468046CD
:101990008AE7002DC0F29A82249B1D430C9B1D43B5
:1019A00000F09482002AA7DDB9F1390F00F02782F8
:1019B0000B9D09F101033C4606F8013B0135474602
:1019C000E2E6249B022B7FF798AE099B002B40F0A8
:1019D000238102990498052201F016F9014602902C
:1019E000504601F0BBFB002840F31681059E0B9D7D
:1019F000312306F8013B01350299049801F0E0F823
:101A00000135002F7FF4CEAED0E60299504601F0AA
:101A1000A5FB0028BFF66DAE5146002304980B9C31
:101A20000A2201F0F1F80C9B661E8246002B7FF41F
:101A300017AF119B002B40F30C820B9D099362E6BC
:101A400001461A46049801F0A5FA249B0290012B46
:101A50006FDD00230893029A136902EB8303186970
:101A600001F07AF9C0F120001CE6964B0593033390
:101A7000FFF7E0BB069B002B7FF413AEDDE90612F7
:101A8000C2F31303002B7FF40CAE8F4B13402BB12A
:101A90000A9B01330A930BF1010B0123089A089367
:101AA000002A3FF4FEADD6E73FF40DAEC0F13C0393
:101AB000B5E601230C93259B0B9A13441193013334
:101AC000012B1F460993B8BF0127049B172FDE691E
:101AD00040F2F881012204235B0003F11400B842B4
:101AE000114602F10102F7D97160FFF7F7BB01233C
:101AF0000C93259B002B36DD1F4611930993E4E7D9
:101B000000230C93D7E700230C93F2E70E9B089A6F
:101B10000E96F31A1A4408920A9B099A1D4613441A
:101B200093440A9300260498012101F067F90746BF
:101B30008FE5069B002B8CD1DDE90601C1F3130371
:101B40000A46002BA1D0089085E7DDE90234022780
:101B5000CDE91234FFF7F0BB7FF40EAF19F0010F9F
:101B60007FF404AF08E7012325930993FFF7B0BB87
:101B700003D119F0010F7FF4F8AD5E461BF8013D6B
:101B8000302BFAD000E6109A002A00F0048103F20C
:101B900033430A9A0E9E15461A449B440A92C2E7A2
:101BA000059A312301351370EEE500F0F8800B9AA9
:101BB000464B554205F00F0203EBC203D3E9002365
:101BC000DDE9020102F0BCFC2D11CDE9120100F0AB
:101BD00054813F4E0023022780468946EA0709D5F3
:101BE000D6E900234046494602F0AAFC0137804668
:101BF000894601236D1006F10806EFD1002B7FF412
:101C0000B4ABDDE91289FFF7B0BBC8F1010383462D
:101C10000A930F90FFF74CBB059EA5E4DDF808A0E2
:101C200002460B4602F0D6FA0B9D02460B46CDE962
:101C300002230135DDE90623A84602F011FF40B971
:101C4000DDE90623DDE9020102F0E2FE18B1F30747
:101C500001D5059A2BE43E46A8E57968049800F082
:101C60006FFF0546002800F026813B6902339A0089
:101C700007F10C010C3000F02DFA049829460122DE
:101C800001F0F8F9804605E60B9D3C4601354746D4
:101C90005FE5049C39463246204601F07BF9524606
:101CA00001460746204601F0BFF8514680462046CF
:101CB00000F086FF0E9B9B1BC2460E933FF4E4ACE4
:101CC000DCE400BFF46000080000F07F105E000854
:101CD000005F0008DDE91423DDE9120102F030FCA9
:101CE000059B1C70169B012BCDE90C0100F0BC80FC
:101CF000169F059B1F447E4B00224046494602F03A
:101D00001FFC8946804602F0CBFE044602F0AEFB83
:101D1000303402460B464046494602F059FA06F86E
:101D2000014BB74280468946E5D1724B0022DDE97E
:101D30000C0102F04FFA02460B464046494602F0BB
:101D40008FFE00286FD1DDE90C236A49002002F0E4
:101D50003FFA02460B464046494602F063FE88B908
:101D6000199B002BFFF670AC0B9B0E2B3FF76CAC56
:101D7000614B0B9A03EBC203D3E90034CDE906347F
:101D8000FFF7F7BB3E46013F16F8013C302BF9D078
:101D9000179D01350AE5189BC3F13603F9E6DDE925
:101DA00002890227FFF7E1BA099B002B3FF489ABB8
:101DB000119C002C7FF7AEAB0B9B013B00224046F1
:101DC000494617934A4B02F0BBFB80468946781C74
:101DD00002F04CFB42464B4602F0B2FB474B00225E
:101DE00002F0F8F9A1F15073CDE9120116941393A2
:101DF000FFF7DEBA08F101083123FFF75FBB0B9D47
:101E0000059AB34639233C460BF8013B013547465A
:101E1000B0E4002302931F46E8E50A9B1D461344E5
:101E200093440A937FE6179B059A03F10108FFF795
:101E30003EBBDDF848A0ABE7DDF850B0DDF848A0C8
:101E4000FFF768BBB9F1390FD9D0002D3FF792AD3C
:101E500092E5249B022B03DC119B0B9D099352E41A
:101E6000119B09930B96B0E537465EE7249B022B46
:101E7000F6DC119B0B960993FFE4DDE9128902273A
:101E8000FFF773BA1E4B0593FFF72CB91D4B1E4885
:101E9000EF2100F02FFE0498C36900255D602946FC
:101EA00000F04EFE0590A8B9184B1748002240F2EA
:101EB000AF1100F01FFE154B13482A4640F2EF21E8
:101EC00000F018FE00217160FFF708BA002A3FF702
:101ED00041AD51E5049B059ADB6925951A604FF0E9
:101EE000FF33012211930C920993FFF713BB00BF3C
:101EF000000024400000E03F105E000800001C408D
:101F0000E8600008F8600008106100083C61000803
:101F1000002950D038B551F8043C0C1F002BB8BF35
:101F2000E418054600F054FB274A13682BB1A3427E
:101F30000CD92168601883422CD063602846146055
:101F4000BDE8384000F046BBA3420FD81A465B6894
:101F5000002BF9D111685018844217D02CD363603C
:101F600054602846BDE8384000F034BB1168501872
:101F7000A04214D020D8216860188342EFD118689D
:101F80005B680844C4E900035460EAE723680B4433
:101F90001360E6E718685B6808442060CDE72068B6
:101FA0000144501883421160DBD1D3E9000401449D
:101FB000C2E90014D5E770470C232B602846BDE822
:101FC000384000F007BB00BF2C0300202DE9F84388
:101FD0000746884616464FF00009D6E90154013DF0
:101FE00010D4A389012B08D9B4F90E30013321464E
:101FF000384602D0C04749EA0009013D6B1C04F194
:102000006804EED13668002EE7D14846BDE8F88373
:1020100038B52F4B1B6805460C4613B11A6A002AC7
:102020004BD0B4F90C3018071CD5226922B313F039
:10203000010107D0616900204942A060A1613AB165
:10204000002038BD980758BF6169A160002AF7D108
:10205000190658BF1046F4D543F04003A3814FF052
:10206000FF3038BDD9062CD55A0712D4226943F067
:102070000803A381002ADAD103F42071B1F5007FAF
:10208000D5D02146284600F0A7FAB4F90C302269D1
:10209000CDE7616B51B104F14402914204D028466E
:1020A000FFF736FFB4F90C30002262632269002189
:1020B000C4E9002123F02403D9E71846FEF7E4F928
:1020C000AFE7092243F040032A60A381C7E700BFBE
:1020D0000C000020844641EA000313F003036DD195
:1020E000403A41D351F8043B40F8043B51F8043BDB
:1020F00040F8043B51F8043B40F8043B51F8043BE2
:1021000040F8043B51F8043B40F8043B51F8043BD1
:1021100040F8043B51F8043B40F8043B51F8043BC1
:1021200040F8043B51F8043B40F8043B51F8043BB1
:1021300040F8043B51F8043B40F8043B51F8043BA1
:1021400040F8043B51F8043B40F8043B51F8043B91
:1021500040F8043B51F8043B40F8043B51F8043B81
:1021600040F8043B403ABDD2303211D351F8043B21
:1021700040F8043B51F8043B40F8043B51F8043B61
:1021800040F8043B51F8043B40F8043B103AEDD2D0
:102190000C3205D351F8043B40F8043B043AF9D221
:1021A000043208D0D2071CBF11F8013B00F8013BF4
:1021B00001D30B8803806046704700BF082A13D301
:1021C0008B078DD010F003038AD0C3F10403D21A19
:1021D000DB071CBF11F8013B00F8013B80D331F84D
:1021E000023B20F8023B7BE7043AD9D3013A11F8CD
:1021F000013B00F8013BF9D20B7803704B78437038
:102200008B78837060467047024B01461868FEF772
:1022100011BE00BF0C000020024B01461868FFF7FA
:1022200077BE00BF0C0000202DE9F84F92461F46F4
:102230000A698B68DDF828909A42B8BF1A46CAF836
:10224000002091F843300C46064613B10132CAF81B
:102250000020226891065FD5DAF800300233CAF810
:102260000030226812F0060F11461DD1E168994234
:10227000D8BF114618DD4FF0000804F1190B05E036
:10228000E568DAF80030ED1A45450CDD01235A46C1
:1022900039463046C847013008F10108F0D14FF007
:1022A000FF30BDE8F88F216894F84330003B18BF39
:1022B00001238A060AD5E1185A1C302081F8430010
:1022C000224494F8451082F84310023304F143028B
:1022D00039463046C8470130E1D02368DAF800506B
:1022E000216903F00603042BD4E902201BD08A42A3
:1022F00020DD4FF00008521A90441A34002501E006
:10230000454517DA0123224639463046C847013091
:1023100005F10105F4D1C2E712F0060F0DD0003B24
:1023200018BF0123D2E7401B8A4220EAE078E2DCB2
:102330000028E2DC0020BDE8F88FE168DAF8003020
:102340009942D8BF114696DCAEE700BF2DE9F047B1
:10235000174684B00A7E0C9D0C460646984601F14D
:10236000430C002A35D0A2F15803D9B2202969D8EC
:10237000202B67D8DFE813F0E600660066006600F1
:102380006600660066006600660066006600AC00D7
:1023900070006600660066006600700066006600F9
:1023A0006600660021008300C60066006600B60075
:1023B0006600830066006600EC002B682268616995
:1023C000181D286010061B6802D4520600F1E08038
:1023D00019600023E1462361CDF800803B4603AA43
:1023E00021463046FFF720FF013020D023694A46BE
:1023F00039463046C047013019D02368E068DDF81F
:102400000C909B0718D5484516DD002504F1190AE4
:1024100004E0E068A0EB0903AB420DDD0123524666
:1024200039463046C047013005F10105F1D14FF082
:10243000FF3004B0BDE8F0874845B8BF484604B057
:10244000BDE8F08784F84220012004F1420900230E
:10245000206184F84330BFE72A682368111D1806FD
:10246000296002D4590600F19580106801460028C1
:102470006268C0F2938054484FF00A0E15E020685D
:102480002B6810F0800F53F8041B02D1400648BFA0
:1024900089B26F2A4C482B6014BF4FF00A0E4FF0E0
:1024A000080E0023626884F84330002AA26051DBE2
:1024B000236823F00403236000294BD1002A7BD139
:1024C000E146BEF1080F56D0ACEB0903236183E768
:1024D0002B681A6804332B6004F1420984F8422007
:1024E0000120B4E72B686268191D2960D3F80090B9
:1024F0000021484601F0BCFB002863D0A0EB090096
:102500006060A4E7236843F02003236078222F480B
:1025100084F845202A6813F0800F52F8041B03D179
:1025200013F0400F18BF89B22A60DA0744BF43F0A6
:102530002003236019B9236823F0200323604FF0A0
:10254000100EAEE7582384F845301F482368E1E7B2
:102550002368DBE77546E146B1FBF5F305FB131A8B
:102560000A46AA4210F80A1009F8011D1946F3D2CA
:10257000BEF1080FA8D12368DD07A5D562682369DD
:102580009A42A1DC302309F8013C09F1FF399BE7AD
:1025900019801EE7B2F90010084668E72D20002ACE
:1025A000A26084F8430002DB23F0040323600A25C1
:1025B00005484942AE46CEE7037884F8423004F13C
:1025C00042097EE7606842E75061000864610008E4
:1025D000704700BF704700BF70B5B1F90C300C46B2
:1025E000990796B007D504F147030122C4E90432E4
:1025F000236016B070BDB4F90E100029054629DB22
:102600006A4601F0EFFB002822DB4FF48061284688
:10261000019EFEF70FFC88B3A389206043F080037E
:1026200006F47046A381B6F5005F4FF48063C4E9F9
:102630000403DED1B4F90E10284600F07BF8002820
:10264000D7D0A38923F0030343F00103A381D0E78C
:10265000B4F90C3013F0800F14BF40264FF480669D
:1026600031462846FEF7E6FB40B1A389206043F0DF
:102670008003C4E90406A38116B070BDB4F90C3020
:102680009A05B6D423F0030304F1470243F0020392
:102690000121C4E90421A3812260AAE770B50C4698
:1026A000B1F90E10002996B015461E460FDB6A469A
:1026B00001F098FB00280ADB019B03F47043A3F5AB
:1026C0000053B3FA83F34FF480625B0908E0A289F8
:1026D00012F0800F4FF0000314BF40224FF48062CD
:1026E000002033602A6016B070BD00BF0EB400B584
:1026F00082B003AB816853F8042B019300F068F8B3
:1027000002B05DF804EB03B0704700BF0FB400B532
:10271000074983B004AB086853F8042B8168019320
:1027200000F056F803B05DF804EB04B0704700BF4A
:102730000C00002038B5074D0022044608462A60E8
:1027400001F01AFD431C00D038BD2B68002BFBD0D4
:10275000236038BD300300209368013B002B936059
:1027600005DAD2F818C0634507DB0A2905D01368DB
:10277000581C106019700846704700F06BB900BF14
:102780009BB1F8B5134406460F46541E5D1E01E08A
:10279000AC4208D014F8011F3A463046FFF7DCFF80
:1027A000431CF5D1F8BD0020F8BD0020704700BFE4
:1027B000936810B514461BB918460023636010BD1A
:1027C00000F096FF0023A3600023636010BD00BFEC
:1027D0002DE9F04FA1B08B4691461C46049018B1EC
:1027E000036A002B00F01C81BBF80C30180740F185
:1027F0009580DBF81030002B00F090800023CA4653
:102800000D9343F22003ADF839309AF80030864E2C
:1028100007940127002B79D0D14604E019F8013F35
:10282000002B00F08580252BF8D1B9EB0A0840F089
:10283000828099F80030002B68D000234FF0FF32DF
:10284000CDE9092309F1010908930B938DF8633051
:102850001E9305E0089A07FA03F31A430892A1466B
:102860004C46052214F8011B304601F001FAA2463D
:10287000831B0028EED1089BD90644BF20228DF887
:10288000632099F800101A0744BF2B228DF86320AB
:102890002A2966D1079A1168043200290792C0F2EA
:1028A0009A800B9199F801102E2970D05F4C032269
:1028B000204601F0DDF938B1089B001B4022824020
:1028C00013430AF1010A08931AF8011B58488DF8BE
:1028D0003810062201F0CCF9002800F08280554B18
:1028E000002B69D007AA0092534B04985A4608A9B6
:1028F000FDF7E6FF0390039B013307D00D9B039A7E
:1029000013440D939AF80030002B85D1BBF80C309E
:102910005B060AD40D9821B0BDE8F08F04985946A3
:10292000FFF776FB00283FF469AF4FF0FF30F2E786
:10293000B9EB0A08EAD00AF1FF35CDF81490A946A0
:10294000049D01E0A0453ED94C465A4619F8011FA6
:102950002846FFF701FF02340130A4EB0A04F1D14D
:10296000D4E7A1F13002092A88BFCA469CD80B9B44
:1029700000E00134217803EB830302EB4303A1F170
:102980003002092AF5D92E290B93A2468ED19AF846
:1029900001102A292FD1079B9AF802101A68099270
:1029A0000433002A0AF102000793B8BF4FF0FF3347
:1029B0008246B8BF099379E7079B073323F00703E3
:1029C000083307939AE70D99DDF81490414499F87C
:1029D00000300D912FE7494243F002030B91089319
:1029E00060E707AA0092144B04985A4608A9FFF71B
:1029F000ADFC03907FE7A1F130020023092A09937F
:102A00000AF1010A3FF652AF1AF8011F03EB8303E4
:102A100002EB4303A1F13002092AF5D9099345E7F6
:102A2000FDF732FDE0E600BF786100088061000834
:102A300084610008C10800088127000810B4044C14
:102A400084461346206810BC0A466146FFF7C0BEA4
:102A50000C000020F8B50D461446064610B1036A76
:102A6000002B37D0A389A269A2601A0719D5236960
:102A7000BBB122686169D31AEDB299422F4620DDBD
:102A80000133A1680139A160511C21601570626990
:102A90009A420DD0A389DB0701D50A2D08D038460C
:102AA000F8BD21463046FFF7B3FA38B92369E0E7AD
:102AB00021463046FDF7ECFD0028F0D04FF0FF37FF
:102AC000EDE721463046FDF7E3FD0028F6D1226808
:102AD0000123D6E7FDF7D8FCC4E700BF10B4044CCF
:102AE00003460A46206810BC1946FFF7B3BF00BF73
:102AF0000C00002000B50B4C25681446EE681A4601
:102B000085B003460D464CB107490095CDE9011447
:102B10003046064901F020F900F066FF04490C46F2
:102B2000F3E700BF0C0000208C6100089C610008E6
:102B3000D060000808B513460022FFF7DBFF00BF96
:102B400070B5C66905460C465EB1F368A3B153F88B
:102B50002400E8B1026843F824200023C0E90333CD
:102B600070BD1020FFF750FB0646E861E8B1002376
:102B7000C0E90033C0E9023321220421284600F0D5
:102B8000CBFFEB69F060DB68002BE0D1002070BD6B
:102B9000012101FA04F6721D9200284600F0BCFFE4
:102BA0000028F3D0C0E90146D7E7034B034832467B
:102BB0006B21FFF79FFF00BFF8600008CC610008A1
:102BC00070B5C66905460C464EB13CB1EB6962680A
:102BD000DB6853F82210216043F8224070BD1020BA
:102BE000FFF712FB0246E86120B1C0E90066C0E9C8
:102BF0000266EAE7024B03488F21FFF77BFF00BF25
:102C0000F8600008CC6100082DE9F0410D69074625
:102C10000E461C4601F1140E0020DEF800108BB2A7
:102C200002FB03434FEA134C090C02FB01CC0130B9
:102C30009BB203EB0C4385424EF8043B4FEA1C4425
:102C4000EBDC3CB1B368AB4207DD06EB8503013535
:102C50005C6135613046BDE8F0817168384601310C
:102C6000FFF76EFF804690B13269023206F10C0127
:102C700092000C30FFF72EFA314638464646FFF7F1
:102C80009FFF06EB850301355C613561E2E7034B8D
:102C900003484246BA21FFF72DFF00BF3C61000800
:102CA000CC6100082DE9F8431746284A1E46083330
:102CB0000C46092E82FB03124FEAE3730546C3EB71
:102CC00062033ADD4FF0010C00214FEA4C0C6345E2
:102CD00001F10101F9DC2846FFF732FF014670B32C
:102CE000089B4361092F4FF00103036112DC0A3492
:102CF0000927BE420BDDF61B264414F8013B0A22CD
:102D0000303B2846FFF780FFB4420146F5D1084624
:102D1000BDE8F88304F1090804EB0709444614F8F8
:102D2000013B0A22303B2846FFF76EFF4C45014627
:102D3000F5D1A7F108044444DBE70021CBE70A46BC
:102D4000034B0448D321FFF7D5FE00BF398EE3388B
:102D50003C610008CC610008B0F5803F034636BFF7
:102D6000030400201020B3F1807F3CBF1B02083019
:102D7000B3F1805F3CBF1B010430B3F1804F03D33C
:102D8000002B06DB013070479B0003D45B0003D4AB
:102D9000202070470230704703307047036813F0FB
:102DA0000702014607D0DA071FD4980721D55B0830
:102DB0000B600120704798B2A0B11046DAB20AB990
:102DC00008301B0A1A0704BF1B0904309A0704BF06
:102DD0009B080230DA0703D45B0800F1010006D03B
:102DE0000B6070471B0C1020E8E700207047202084
:102DF00070479B080B600220704700BF10B50C465F
:102E00000121FFF79DFE024618B10123C0E90434F9
:102E100010BD034B034840F24511FFF76BFE00BFA6
:102E20003C610008CC6100082DE9F04FD1F810801A
:102E30001569A84585B00E46924605DB2A465346DD
:102E400045468A4690461E46DAF80830DAF80410FD
:102E500005EB0804A342B8BF0131FFF771FE8446B9
:102E6000002800F08B8000F1140707EB840E7745F3
:102E700005D23B46002243F8042B9E45FBD814366E
:102E800006EB88080AF11409464509EB850566D268
:102E9000A5EB0A03153B23F003030AF1150A0433DB
:102EA00055452CBF9B464FF0040BCDF808E003942A
:102EB000AE46E24605E0090C2AD1B04507F1040709
:102EC0004AD956F8041B8DB2002DF4D0CC463C46AE
:102ED000002301965CF8040B216886B28AB2000CCC
:102EE00005FB0622090C1A4405FB001101EB1241F7
:102EF00092B242EA0142E64544F8042B4FEA1143FC
:102F0000E8D8019E47F80B3056F8041C090CD4D0C1
:102F10003B68002248461D463C469446028801FB19
:102F200002C202EB15429BB243EA024344F8043B5F
:102F300050F8043B25684FEA134CABB201FB0C334D
:102F400003EB124370454FEA134CE7D3B04547F803
:102F50000B3007F10407B4D8DDE902E4D446002CB5
:102F600002DC05E0013C03D05EF8043D002BF9D003
:102F70006046CCF8104005B0BDE8F08F034B044824
:102F800062464FF4B171FFF7B5FD00BF3C61000828
:102F9000CC6100082DE9F04312F0030383B014461E
:102FA00007462DD10E46A4101CD0FA698AB3956845
:102FB000002D39D0E3074FF0000906D4641011D07A
:102FC000286898B10546E307F8D531462A463846C1
:102FD000FFF72AFF314680463846FFF7F1FD6410BF
:102FE0004646EDD1304603B0BDE8F0832A46294677
:102FF0003846FFF719FF2860C0F800900546E2E761
:10300000013B184A52F823200023FFF7FDFD064636
:10301000C9E71020FFF7F8F80246F861E0B1002395
:10302000C0E90033C0E90233012138460192FFF7BD
:1030300087FD019A054640B1012340F27121C0E9A4
:103040000431002390600360B4E7074B07482A4629
:1030500040F24511FFF74EFD054B044840F2B31115
:10306000FFF748FD005E00083C610008CC610008E5
:10307000F86000082DE9F0470D4691462B69496834
:1030800003EB6218AB6808F101049C4207464FEA63
:10309000621A04DD5B009C4201F10101FADC384652
:1030A000FFF74EFD064600284DD0BAF1000F00F1A3
:1030B00014000EDD0AF105024FEA820C034606EB0E
:1030C0008202002143F8041B9342FBD1ACF11403AC
:1030D0001844296905F1140319F01F0903EB810154
:1030E00029D0C9F1200E84464FF0000A1A6802FA6E
:1030F00009F242EA0A024CF8042B53F8042B9942D5
:1031000022FA0EFAF2D84B1B153B23F003030433CB
:1031100005F11502914238BF042340F803A0BAF12B
:10312000000F00D14446384634612946FFF748FD78
:103130003046BDE8F087043853F8042B40F8042FDC
:103140009942F9D8EEE7034B034832464FF4EF714A
:10315000FFF7D0FC3C610008CC6100080B69844695
:103160000069C01A15D10CF1140C14310CEB830258
:1031700010B401EB830301E0944508D252F8044DEA
:1031800053F8041D8C42F7D004D24FF0FF3010BC2E
:1031900070477047012010BC704700BF2DE9F04F09
:1031A00015460A692B69D21A002A83B0884640F076
:1031B000878001F1140605F1140101EB830106EB90
:1031C000830301E09E427ED253F8044D51F8042D52
:1031D0009442F7D075D32B4600244546984669683B
:1031E000FFF7AEFC8146002800F089802E69C4609C
:1031F000D8F8100005F1140B08F1140E09F1140AA7
:1032000005F110020EEB80000BEB860157464FF0E4
:10321000000CCDF804B05EF8044B52F8045F1FFABE
:1032200084FBABB2A3EB0B03240C6344C4EB154447
:1032300004EB23449BB243EA0443704547F8043B44
:103240004FEA244CE7D8A0EB080208F115084045E6
:10325000A2F1150234BF0020012092080028DDF8F9
:1032600004B002F101044FEA840408BF04240BEB0C
:103270000405A942544433D92746284650F8043B54
:103280001CFA83FE1A0C634402EB2E429BB243EA03
:103290000243814247F8043B4FEA224CEED8013901
:1032A000491B21F003010C4423B954F8043D013EAD
:1032B000002BFAD04846C9F8106003B0BDE8F08F83
:1032C00089DA01248BE70021FFF73AFC814678B1C7
:1032D00001220023C0E90423484603B0BDE8F08F73
:1032E00000284FEA820208BF00220AEB0204DBE753
:1032F000064B07484A4640F23721FFF7FBFB034BDA
:1033000003484A4640F24521FFF7F4FB3C610008C0
:10331000CC610008114B0B40A3F15073002B03DD6F
:1033200000221946104670475B42B3F1A07F4FEA76
:10333000235206DA4FF400231341002219461046A7
:103340007047A2F114031E2BDABF4FF00042DA409F
:103350000122002319461046704700BF0000F07F8D
:1033600002692DE9F04100F1140707EB8202A2F196
:10337000040852F8046C3046FFF7EEFCC0F120035D
:103380000A280B6033DD4745A0F10B0119D252F832
:10339000083C21B3C1F120008E4023FA00F42643FB
:1033A0008B40A2F1080146F07F558F4245F440154D
:1033B00019D252F80C2CC240134318462946BDE8D6
:1033C000F0810B280AD006FA01F141F07F5545F44F
:1033D0004015002318462946BDE8F081002346F039
:1033E0007F5545F4401518462946BDE8F08147450C
:1033F00038BF52F8082CC0F10B0326FA03F138BF8E
:10340000DA4000F1150341F07F5528BF002206FA8B
:1034100003F345F44015134318462946BDE8F081EF
:10342000F0B5012183B016461F46FFF789FB05461C
:10343000002847D0C7F30A54C7F313030CB143F471
:103440008013002E019314D101A8FFF7A7FC019B64
:103450006B61012220302A6114B3089BA4F233442B
:1034600004441C60099BC0F135001860284603B075
:10347000F0BD68460096FFF791FC019B00B30099F0
:10348000C0F1200203FA02F2C34001930A43002B69
:10349000C5E905230CBF012202222A61002CDCD1E0
:1034A00005EB8201A0F23243086908990B60FFF72F
:1034B00053FC099BC0EB42101860284603B0F0BDD6
:1034C000009AE4E7034B04482A4640F20F31FFF725
:1034D00011FB00BF3C610008CC6100082DE9F043FE
:1034E00083B0884669468146FFF73AFF04460D4699
:1034F000404601A9FFF734FFD9F81030D8F8102062
:10350000A3EB020CDDE900329B1A03EB4C13002BFA
:103510000BDD05EB03573D4602460B462046294688
:1035200001F038F903B0BDE8F083C3EB033301EBDE
:1035300003594946F0E700BF172870B506460ADD73
:103540000849094D0020002422462B4600F0F8FFD0
:10355000013EF9D170BD054B03EBC003D3E9040173
:1035600070BD00BF0000F03F00002440005E000876
:103570000139491101F1010C116902F1140303EB46
:1035800081018B4200EB8C0C16D210B5A0F1040E19
:1035900053F8044B4EF8044F9942F9D88B1A153B57
:1035A00023F0030304331844844504D9002340F86E
:1035B000043B8445FBD810BD844505D9002340F861
:1035C000043B8445FBD87047704700BF03694A112C
:1035D000934200F1140009DA00EB830302E053F890
:1035E000042DA2B98342FAD80020704700EB820371
:1035F000F8DD11F01F01F5D010B450F8224024FA84
:1036000001F28A40944208D0012010BC704701208A
:10361000704753F8042D002AF6D18342F9D80020D0
:1036200010BC704738B5074D0022044608462A6092
:1036300000F0BAFD431C00D038BD2B68002BFBD036
:10364000236038BD3003002010B50C46B1F90E10D0
:1036500000F05EFB002803DB636D0344636510BD6F
:10366000A38923F48053A38110BD00BF00207047BD
:103670002DE9F0410C46B1F90C101F46CB0505466B
:1036800016460BD421F48051A1813B46B4F90E10AB
:1036900032462846BDE8F04100F0D0BBB4F90E1028
:1036A0000223002200F0B4FBB4F90C10EAE700BFDB
:1036B00010B50C46B1F90E1000F0AAFBB4F90C30AD
:1036C000421C0EBF23F4805343F480536065A381F2
:1036D00010BD00BFB1F90E1000F08EB9F030704788
:1036E000004870474C010020004870474C01002002
:1036F0009368002B00F0F6802DE9F04FB1F90CC073
:103700001CF0080F83B0904681460C4631D00B69FF
:103710007BB31CF00207D8F8006038D00027D4F83B
:1037200028B0216ADFF8BCA23D4655452B463A46F3
:1037300028BF53464846C5B1D847002840F3C88043
:10374000D8F808301B1A07442D1AC8F80830002B87
:1037500000F0B48055452B46D4F828B0216A28BF24
:1037600053463A464846002DE6D1D6E9007508365C
:10377000DBE721464846FEF74BFC002840F0AD80D1
:10378000B4F90CC0D8F800601CF00207C6D11CF0D8
:10379000010A63D12368A168574618468B46002F5B
:1037A00058D01CF4007F00F0B180B9420A4600F204
:1037B000DD801CF4906F2FD0216962695D1A02EBE5
:1037C000420202EBD2726B1C52103B44934292BFF6
:1037D00093469B461A461CF4806F00F0E680114623
:1037E0004846FDF727FB002800F0F5802A462169AE
:1037F0000190FEF76FFCA289019B22F4906242F0D7
:103800008002A2815819ABEB0505C4F814B02361FE
:10381000A5602060BB463A465146019200F090F9FF
:10382000A1682368019AA1EB0B011A443D46A160EF
:1038300022600027D8F808305B1BAA44C8F808307B
:10384000002B3BD02368A168B4F90CC018468B4606
:10385000002FA6D1D6E900A708369EE73846BB461A
:103860003D46002D40D0002845D03A46D4E904C357
:103870002068A168AA4228BF2A46604504D901EB06
:10388000030A524500F38280934272DC216AD4F825
:1038900028C05A464846E047B0F1000A18DDB7EBA9
:1038A0000A070FD00120D8F80830A3EB0A03D3444D
:1038B000A5EB0A05C8F80830002BD2D1002003B0D0
:1038C000BDE8F08F21464846FCF7E2FE0028EAD02A
:1038D000B4F90C3043F04003A3814FF0FF3003B044
:1038E000BDE8F08F00207047756833460836002D1C
:1038F000FAD0D3F800B02A460A21584600F0B8F9A9
:10390000002865D00130A0EB0B07AEE722699A4290
:1039100014D36269BA4211D86FF00043BB4228BF8A
:103920003B46A56A93FBF2F3216A02FB03F3484688
:103930005246A847051ECBDD7F1B7BE7B94228BF57
:1039400039460D4618460A46514600F0F9F8A16876
:103950002368491B2B44A16023600029ECD1214638
:103960004846FCF795FE0028E6D0B1E7BB463A464C
:1039700052E75946019200F0E3F8019AA3689B1AB6
:10398000A360236813442360924688E75946524651
:1039900000F0D6F823685344236021464846FCF7DC
:1039A00077FE00283FF47BAF92E7484600F0E8F945
:1039B000034600287FF426AF21694846FEF7A8FA9F
:1039C000B4F90C300C22C9F8002023F0800381E701
:1039D0006A1C17464AE70C22B4F90C30C9F80020DB
:1039E00078E700BF00FCFF7F08B5062000F0F8FA7A
:1039F000012000F0E7FB00BF38B5074D0022044668
:103A000008462A6000F0A0FB431C00D038BD2B689C
:103A1000002BFBD0236038BD3003002000000000E5
:103A20000000000000000000000000000000000096
:103A30000000000000000000000000000000000086
:103A400030B490F800F020F007016FF0000C10F097
:103A5000070491F820F040F048804FF000046FF028
:103A60000700D1E9002391F840F000F1080082FA44
:103A70004CF2A4FA8CF283FA4CF3A2FA8CF34BBB0F
:103A8000D1E9022382FA4CF200F10800A4FA8CF288
:103A900083FA4CF3A2FA8CF3E3B9D1E9042382FA56
:103AA0004CF200F10800A4FA8CF283FA4CF3A2FA6B
:103AB0008CF37BB9D1E9062301F1200182FA4CF2A3
:103AC00000F10800A4FA8CF283FA4CF3A2FA8CF30A
:103AD000002BC6D0002A04BF04301A4612BAB2FA2C
:103AE00082F200EBD20030BC7047D1E9002304F031
:103AF0000305C4F100004FEAC50514F0040F91F866
:103B000040F00CFA05F562EA05021CBF63EA050302
:103B100062464FF00004AAE770B5A1FB025454B905
:103B20002946FDF787F9064618B12A462146FCF7D3
:103B3000D3FC304670BD0C2202600026F9E700BFBE
:103B400088420ED98B1883420BD900EB020C002A55
:103B50006ED0624613F801CD02F801CD9942F9D139
:103B600070470F2A0FD8034602F1FF3C002A5FD0AE
:103B70000CF1010C013B8C4411F8012B03F8012FCF
:103B80006145F9D1704740EA01039B0751D1A2F189
:103B9000100370B501F1200C23F00F0501F1100E98
:103BA00000F11004AC441B095EF8105C44F8105C92
:103BB0005EF80C5C44F80C5C5EF8085C44F8085C49
:103BC0005EF8045C44F8045C0EF1100EE64504F166
:103BD0001004E9D1013312F00C0F01EB031102F0D4
:103BE0000F0400EB031328D0043C24F003064FEA33
:103BF000940C1E441C1F8E465EF8045B44F8045F60
:103C0000B442F9D10CF1010402F0030203EB840386
:103C100001EB840102F1FF3C4AB10CF1010C013BC4
:103C20008C4411F8012B03F8012F6145F9D170BDC7
:103C3000704702F1FF3C03469AE72246EAE700BFDD
:103C400010B4034CD4F8E040A44610BC604700BF59
:103C50005C00002049B1FF2A02D80A700120704799
:103C60008A2303604FF0FF3070470846704700BF5B
:103C700001F0FF01102A2BDB10F0070F08D010F81D
:103C8000013B013A8B422DD010F0070F42B3F6D121
:103C9000F0B441EA012141EA014122F007047FF03A
:103CA00000070023F0E80256083C85EA010586EA91
:103CB000010685FA47F5A3FA87F586FA47F6A5FACD
:103CC00087F68EB9EED1F0BC01F0FF0102F00702D9
:103CD00032B110F8013B013A83EA010313B1F8D184
:103CE0000020704701387047002D06BF3546033865
:103CF000073815F0010F07D1013015F4807F02BF9E
:103D0000013015F4C03F0130F0BC0138704700BFEE
:103D100038B50C46084D8446114620461A46002305
:103D20002B60644601F0B6F9431C00D038BD2B6807
:103D3000002BFBD0236038BD300300200CB400B54D
:103D400083B004AB53F8042B0193FEF741FD03B09D
:103D50005DF804EB02B070470EB410B583B005AB4C
:103D6000064C53F8042B019301462068FEF730FD02
:103D700003B0BDE8104003B0704700BF0C00002046
:103D80002DE9F041144641B30AB306460D4600F052
:103D90006BF88442074602D8B4EB500F13D8214683
:103DA0003046FDF747F8804650B1BC4222462946CE
:103DB00028BF3A46FEF78EF929463046FEF7A8F8A6
:103DC0004046BDE8F081A8464046BDE8F081A046E7
:103DD000FEF79EF84046BDE8F081BDE8F04111468F
:103DE000FDF728B870B50C46084D0346002620465E
:103DF00011461C462E6000F0AFF9431C00D070BD88
:103E00002B68002BFBD0236070BD00BF3003002067
:103E100038B50C46084D8446114620461A46002304
:103E20002B60644600F0B8F9431C00D038BD2B6805
:103E3000002BFBD0236038BD3003002038B50C4682
:103E4000084D8446114620461A4600232B606446DE
:103E500001F00AF9431C00D038BD2B68002BFBD0C1
:103E6000236038BD3003002051F8043C181F002B9C
:103E7000BCBF0B58C018704710B4034CD4F8E440D2
:103E8000A44610BC604700BF5C00002082B049B16E
:103E90005AB16BB113780B601278101E18BF012055
:103EA00002B0704701A9002AF3D1104602B0704752
:103EB0006FF00100F4E700BF38B5C46B0CB100200F
:103EC00038BD80210546FCF7B5FF0246E86330B1F6
:103ED000031F7C3243F8044F9342FBD1EFE74FF0CE
:103EE000FF3038BD30B51F2983B0054608D8C36BF5
:103EF0000C4653B153F8240043F8242003B030BDDE
:103F0000162303604FF0FF30F8E780210192FCF7A1
:103F100091FF019AE86303460028F3D0011F00F1E6
:103F20007C05002041F8040FA942FBD1E2E700BF65
:103F30001F2938B505461ED8C26B0C466AB152F827
:103F4000213053B1012B06D0591C10D0002142F86A
:103F5000241020469847002038BD284600F0F2F88B
:103F6000224601462846BDE8384000F0D5B8162361
:103F70000360012038BD162303604FF0FF3038BDC9
:103F80001F292AD838B5C36B0C460546A3B153F890
:103F9000242003EB84034AB1511C0BD0012A07D023
:103FA000002520461D609047284638BD012038BDB9
:103FB000032038BD022038BD8021FCF73BFF0346BB
:103FC000E86338B1021F00217C3042F8041F8242AE
:103FD000FBD1DCE74FF0FF3038BD4FF0FF307047CA
:103FE00038B5134B1F281D681DD8EA6B044662B113
:103FF00052F820304BB1012B05D0591C0FD00021B5
:1040000042F820109847002038BD284600F09AF862
:10401000224601462846BDE8384000F07DB8162308
:104020002B60012038BD16232B604FF0FF3038BDC8
:104030000C000020114B1F2870B51E6808D8F36BC8
:1040400004460D464BB153F8240043F8245070BD8C
:10405000162333604FF0FF3070BD80213046FCF7EF
:10406000E9FE0346F0630028F4D0021F00217C30F3
:1040700042F8041F8242FBD1E5E700BF0C0000209C
:1040800038B50B4B1D68EC6B0CB1002038BD80219E
:104090002846FCF7CFFEE86338B1031F00F17C022D
:1040A00043F8044F9342FBD1EFE74FF0FF3038BDA8
:1040B0000C00002038B5174B1F281D6826D8044671
:1040C000E86BA0B150F8243000EB84004BB15A1CCF
:1040D0000BD0012B07D000250560204698472846C5
:1040E00038BD012038BD032038BD022038BD8021F5
:1040F0002846FCF79FFEE86340B1031F00F17C01F6
:10410000002243F8042F8B42FBD1DBE74FF0FF3056
:1041100038BD00BF0C00002070B50C46084D0346AA
:104120000026204611461C462E6000F02DF8431C48
:1041300000D070BD2B68002BFBD0236070BD00BF8A
:104140003003002000F010B8024B58221A604FF0E4
:10415000FF30704730030020024B58221A604FF0A6
:10416000FF30704730030020024B58221A604FF096
:10417000FF30704730030020024B58221A600020A5
:10418000704700BF30030020024B58221A604FF0E6
:10419000FF30704730030020024B58221A604FF066
:1041A000FF30704730030020044A05491368002B94
:1041B00008BF0B46184410601846704734030020AF
:1041C00078030020FEE700BF81F0004102E000BF5D
:1041D00083F0004330B54FEA41044FEA430594EAC7
:1041E000050F08BF90EA020F1FBF54EA000C55EA02
:1041F000020C7FEA645C7FEA655C00F0E2804FEAD3
:104200005454D4EB5555B8BF6D420CDD2C4480EAB4
:10421000020281EA030382EA000083EA010180EAE4
:10422000020281EA0303362D88BF30BD11F0004F32
:104230004FEA01314FF4801C4CEA113102D0404268
:1042400061EB410113F0004F4FEA03334CEA1333A3
:1042500002D0524263EB430394EA050F00F0A780BB
:10426000A4F10104D5F1200E0DDB02FA0EFC22FAB6
:1042700005F2801841F1000103FA0EF2801843FAAA
:1042800005F359410EE0A5F120050EF1200E012A9B
:1042900003FA0EFC28BF4CF0020C43FA05F3C018D9
:1042A00051EBE37101F0004507D54FF0000EDCF152
:1042B000000C7EEB00006EEB0101B1F5801F1BD3FB
:1042C000B1F5001F0CD349085FEA30004FEA3C0CFF
:1042D00004F101044FEA445212F5800F80F09A80F5
:1042E000BCF1004F08BF5FEA500C50F1000041EBF9
:1042F000045141EA050130BD5FEA4C0C404141EBFD
:104300000101013C28BFB1F5801FE9D291F0000FF7
:1043100004BF01460020B1FA81F308BF2033A3F1A6
:104320000B03B3F120020CDA0C3208DD02F1140C9D
:10433000C2F10C0201FA0CF021FA02F10CE002F1D8
:104340001402D8BFC2F1200C01FA02F120FA0CFCD1
:10435000DCBF41EA0C019040E41AA2BF01EB04511A
:10436000294330BD6FEA04041F3C1CDA0C340EDC18
:1043700004F11404C4F1200220FA04F001FA02F35B
:1043800040EA030021FA04F345EA030130BDC4F119
:104390000C04C4F1200220FA02F001FA04F340EA0E
:1043A0000300294630BD21FA04F0294630BD94F0BF
:1043B000000F83F4801306BF81F480110134013DA6
:1043C0004EE77FEA645C18BF7FEA655C29D094EA17
:1043D000050F08BF90EA020F05D054EA000C04BF95
:1043E0001946104630BD91EA030F1EBF0021002080
:1043F00030BD5FEA545C05D14000494128BF41F01F
:10440000004130BD14F580043CBF01F5801130BD82
:1044100001F0004545F0FE4141F470014FF000000D
:1044200030BD7FEA645C1ABF194610467FEA655CBE
:104430001CBF0B46024650EA013406BF52EA033560
:1044400091EA030F41F4002130BD00BF90F0000F4E
:1044500004BF0021704730B54FF4806404F132048A
:104460004FF000054FF0000150E700BF90F0000F43
:1044700004BF0021704730B54FF4806404F132046A
:1044800010F0004548BF40424FF000013EE700BF3A
:1044900042004FEAE2014FEA31014FEA02701FBFCA
:1044A00012F07F4393F07F4F81F06051704732F0FC
:1044B0007F4208BF704793F07F4F04BF41F4002153
:1044C000704730B54FF4607401F0004521F00041B1
:1044D0001CE700BF50EA010208BF704730B54FF03B
:1044E00000050AE050EA010208BF704730B511F03C
:1044F000004502D5404261EB41014FF4806404F174
:1045000032045FEA915C3FF4D8AE4FF003025FEAF9
:10451000DC0C18BF03325FEADC0C18BF033202EB7D
:10452000DC02C2F1200300FA03FC20FA02F001FAD7
:1045300003FE40EA0E0021FA02F11444BDE600BF7A
:1045400070B54FF0FF0C4CF4E06C1CEA11541DBF29
:104550001CEA135594EA0C0F95EA0C0F00F0DEF8F4
:104560002C4481EA030621EA4C5123EA4C5350EAD9
:10457000013518BF52EA033541F4801143F480132A
:1045800038D0A0FB02CE4FF00005E1FB02E506F0BB
:104590000042E0FB03E54FF00006E1FB03569CF010
:1045A000000F18BF4EF0010EA4F1FF04B6F5007F16
:1045B00064F5407404D25FEA4E0E6D4146EB060688
:1045C00042EAC62141EA55514FEAC52040EA5E5011
:1045D0004FEACE2EB4F1FD0C88BFBCF5E06F1ED8BB
:1045E000BEF1004F08BF5FEA500E50F1000041EBF2
:1045F000045170BD06F0004646EA010140EA02009F
:1046000081EA0301B4EB5C04C2BFD4EB0C0541EAC0
:10461000045170BD41F480114FF0000E013C00F3D5
:10462000AB8014F1360FDEBF002001F0004170BDF9
:10463000C4F10004203C35DA0C341BDC04F1140412
:10464000C4F1200500FA05F320FA04F001FA05F29E
:1046500040EA020001F0004221F0004110EBD3706B
:1046600021FA04F642EB06015EEA430E08BF20EA97
:10467000D37070BDC4F10C04C4F1200500FA04F33A
:1046800020FA05F001FA04F240EA020001F00041CC
:1046900010EBD37041F100015EEA430E08BF20EA3F
:1046A000D37070BDC4F1200500FA05F24EEA020E87
:1046B00020FA04F301FA05F243EA020321FA04F0B6
:1046C00001F0004121FA04F220EA020000EBD3706D
:1046D0005EEA430E08BF20EAD37070BD94F0000F6D
:1046E0000FD101F00046400041EB010111F4801FA1
:1046F00008BF013CF7D041EA060195F0000F18BF52
:10470000704703F00046520043EB030313F4801F8D
:1047100008BF013DF7D043EA0603704794EA0C0F47
:104720000CEA135518BF95EA0C0F0CD050EA41065D
:1047300018BF52EA4306D1D181EA030101F00041DA
:104740004FF0000070BD50EA410606BF1046194602
:1047500052EA430619D094EA0C0F02D150EA01360E
:1047600013D195EA0C0F05D152EA03361CBF10464F
:1047700019460AD181EA030101F0004141F0FE41EE
:1047800041F470014FF0000070BD41F0FE4141F472
:10479000780170BD70B54FF0FF0C4CF4E06C1CEA72
:1047A00011541DBF1CEA135594EA0C0F95EA0C0F27
:1047B00000F0A7F8A4EB050481EA030E52EA0335E2
:1047C0004FEA013100F088804FEA03334FF0805503
:1047D00045EA131343EA12634FEA022245EA111530
:1047E00045EA10654FEA00260EF000419D4208BFE1
:1047F000964244F1FD0404F5407402D25B084FEA8E
:104800003202B61A65EB03055B084FEA32024FF439
:1048100080104FF4002CB6EB020E75EB030E22BF96
:10482000B61A754640EA0C005B084FEA3202B6EB56
:10483000020E75EB030E22BFB61A754640EA5C0005
:104840005B084FEA3202B6EB020E75EB030E22BF95
:10485000B61A754640EA9C005B084FEA3202B6EB96
:10486000020E75EB030E22BFB61A754640EADC0055
:1048700055EA060E18D04FEA051545EA16754FEAB7
:1048800006164FEAC30343EA52734FEAC2025FEAD5
:104890001C1CC0D111F4801F0BD141EA00014FF064
:1048A00000004FF0004CB6E711F4801F04BF014335
:1048B0000020B4F1FD0C88BFBCF5E06F3FF6AFAE51
:1048C000B5EB030C04BFB6EB020C5FEA500C50F1E1
:1048D000000041EB045170BD0EF0004E4EEA113164
:1048E00014EB5C04C2BFD4EB0C0541EA045170BD6B
:1048F00041F480114FF0000E013C90E645EA060EAF
:104900008DE60CEA135594EA0C0F08BF95EA0C0FDC
:104910003FF43BAF94EA0C0F0AD150EA01347FF424
:1049200034AF95EA0C0F7FF425AF104619462CE7FB
:1049300095EA0C0F06D152EA03353FF4FDAE10465E
:10494000194622E750EA410618BF52EA43067FF4AF
:10495000C5AE50EA41047FF40DAF52EA43057FF43F
:10496000EBAE12E74FF0FF3C06E000BF4FF0010C4A
:1049700002E000BF4FF0010C4DF804CD4FEA410CAE
:104980007FEA6C5C4FEA430C18BF7FEA6C5C1BD07B
:1049900001B050EA410C0CBF52EA430C91EA030FFC
:1049A00002BF90EA020F0020704710F1000F91EA59
:1049B000030F58BF994208BF90422CBFD8176FEA27
:1049C000E37040F0010070474FEA410C7FEA6C5CF5
:1049D00002D150EA013C07D14FEA430C7FEA6C5CFC
:1049E000D6D152EA033CD3D05DF8040B704700BF28
:1049F0008446104662468C461946634600E000BF76
:104A000001B5FFF7B7FF002848BF10F1000F01BD47
:104A10004DF808EDFFF7F4FF0CBF012000205DF812
:104A200008FB00BF4DF808EDFFF7EAFF34BF012097
:104A300000205DF808FB00BF4DF808EDFFF7E0FF30
:104A400094BF012000205DF808FB00BF4DF808ED81
:104A5000FFF7CEFF94BF012000205DF808FB00BFE8
:104A60004DF808EDFFF7C4FF34BF012000205DF8CA
:104A700008FB00BF4FEA410C7FEA6C5C02D150EAB0
:104A8000013C0AD14FEA430C7FEA6C5C02D152EA46
:104A9000033C02D14FF0000070474FF00100704717
:104AA0004FEA410212F5001215D211D56FF4787356
:104AB000B3EB625212D94FEAC12343F0004343EAF9
:104AC000505311F0004F23FA02F018BF40427047D4
:104AD0004FF00000704750EA013005D111F000405E
:104AE00008BF6FF0004070474FF00000704700BFF4
:104AF0004FEA4102B2F1E04324BFB3F5001CDCF100
:104B0000FE5C0DD901F0004C4FEAC0024CEA507037
:104B1000B2F1004F40EB830008BF20F00100704766
:104B200011F0804F21D113F13872BCBF01F0004069
:104B3000704741F480114FEA5252C2F11802C2F19B
:104B4000200C10FA0CF320FA02F018BF40F001001C
:104B50004FEAC1234FEAD32303FA0CFC40EA0C00CE
:104B600023FA02F34FEA4303CCE77FEA625307D10B
:104B700050EA01331EBF4FF0FE4040F44000704742
:104B800001F0004040F0FE4040F40000704700BFDC
:104B900080F0004002E000BF81F0004142001FBFF2
:104BA0005FEA410392EA030F7FEA226C7FEA236CFB
:104BB0006AD04FEA1262D2EB1363C1BFD2184140F0
:104BC00048404140B8BF5B42192B88BF704710F086
:104BD000004F40F4000020F07F4018BF404211F029
:104BE000004F41F4000121F07F4118BF494292EA91
:104BF000030F3FD0A2F1010241FA03FC10EB0C00BD
:104C0000C3F1200301FA03F100F0004302D5494249
:104C100060EB4000B0F5000F13D3B0F1807F06D3F6
:104C200040084FEA310102F10102FE2A51D2B1F1EE
:104C3000004F40EBC25008BF20F0010040EA0300E3
:104C40007047490040EB0000013A28BFB0F5000F63
:104C5000EDD2B0FA80FCACF1080CB2EB0C0200FA19
:104C60000CF0AABF00EBC25052421843BCBFD04068
:104C70001843704792F0000F81F4000106BF80F4E2
:104C800000000132013BB5E74FEA41037FEA226CA5
:104C900018BF7FEA236C21D092EA030F04D092F070
:104CA000000F08BF0846704790EA010F1CBF0020A4
:104CB000704712F07F4F04D1400028BF40F0004001
:104CC000704712F100723CBF00F50000704700F021
:104CD000004343F0FE4040F4000070477FEA226248
:104CE00016BF08467FEA23630146420206BF5FEA19
:104CF000412390EA010F40F4800070474FF0000319
:104D000004E000BF10F0004348BF40425FEA000CDF
:104D100008BF704743F0964301464FF000001CE087
:104D200050EA010208BF70474FF000030AE000BFDD
:104D300050EA010208BF704711F0004302D540421B
:104D400061EB41015FEA010C02BF8446014600208D
:104D500043F0B64308BFA3F18053A3F50003BCFAA8
:104D60008CF2083AA3EBC25310DB01FA02FC634455
:104D700000FA02FCC2F12002BCF1004F20FA02F25C
:104D800043EB020008BF20F00100704702F120024F
:104D900001FA02FCC2F1200250EA4C0021FA02F2B0
:104DA00043EB020008BF20EADC7070474FF0FF0CB5
:104DB0001CEAD0521EBF1CEAD15392EA0C0F93EAB0
:104DC0000C0F6FD01A4480EA010C400218BF5FEA52
:104DD00041211ED04FF0006343EA501043EA5111C5
:104DE000A0FB01310CF00040B1F5000F3EBF4900BF
:104DF00041EAD3715B0040EA010062F17F02FD2AC3
:104E00001DD8B3F1004F40EBC25008BF20F00100A5
:104E1000704790F0000F0CF0004C08BF49024CEABC
:104E2000502040EA51207F3AC2BFD2F1FF0340EA4E
:104E3000C250704740F400004FF00003013A5DDCBF
:104E400012F1190FDCBF00F000407047C2F1000200
:104E5000410021FA02F1C2F1200200FA02FC5FEAED
:104E6000310040F1000053EA4C0308BF20EADC7037
:104E7000704792F0000F00F0004C02BF400010F4A9
:104E8000000F013AF9D040EA0C0093F0000F01F056
:104E9000004C02BF490011F4000F013BF9D041EA78
:104EA0000C018FE70CEAD15392EA0C0F18BF93EA7A
:104EB0000C0F0AD030F0004C18BF31F0004CD8D1A4
:104EC00080EA010000F00040704790F0000F17BF2B
:104ED00090F0004F084691F0000F91F0004F14D071
:104EE00092EA0C0F01D142020FD193EA0C0F03D1C9
:104EF0004B0218BF084608D180EA010000F00040CC
:104F000040F0FE4040F40000704740F0FE4040F4A6
:104F1000400070474FF0FF0C1CEAD0521EBF1CEA45
:104F2000D15392EA0C0F93EA0C0F69D0A2EB030263
:104F300080EA010C49024FEA402037D04FF08053FD
:104F400043EA111143EA10130CF000408B4238BFC2
:104F50005B0042F17D024FF4000C8B4224BF5B1AD0
:104F600040EA0C00B3EB510F24BFA3EB510340EA1E
:104F70005C00B3EB910F24BFA3EB910340EA9C00CC
:104F8000B3EBD10F24BFA3EBD10340EADC001B013C
:104F900018BF5FEA1C1CE0D1FD2A3FF650AF8B42E0
:104FA00040EBC25008BF20F0010070470CF0004CED
:104FB0004CEA50207F32C2BFD2F1FF0340EAC25018
:104FC000704740F400004FF00003013A37E792F0D9
:104FD000000F00F0004C02BF400010F4000F013A37
:104FE000F9D040EA0C0093F0000F01F0004C02BF32
:104FF000490011F4000F013BF9D041EA0C0195E79B
:105000000CEAD15392EA0C0F08D142027FF47DAF33
:1050100093EA0C0F7FF470AF084676E793EA0C0F23
:1050200004D14B023FF44CAF08466EE730F0004C21
:1050300018BF31F0004CCAD130F000427FF45CAFB1
:1050400031F000437FF43CAF5FE700BF7047FEE7FD
:10505000FEE7FEE7FEE770477047704708B500F0CF
:1050600059F808BD7047704770B50E4615460024C4
:105070000AE0315D064800F0CEFD0721044800F04B
:10508000D2FD0028F9D00134AC42F2DB284670BDD5
:105090000044004070B50E46154600240AE0052184
:1050A000064800F0C0FD0128F9D0044800F0B7FD23
:1050B00030550134AC42F2DB284670BD004400405C
:1050C0000C4B1B680C4AA2FB03239B09013BB3F169
:1050D000807F0DD24FF0E0225361084BF02183F81E
:1050E0002310002191610720106183F8231070477D
:1050F000FEE700BFCC010020D34D621000ED00E0C0
:10510000034B1860024B1B68002BFBD1704700BF9C
:1051100038030020034B1B681BB1024A1368013B94
:105120001360704738030020F8B504460027077065
:10513000880040F020000B4D4023C5F810380123B3
:10514000C5F8103C0226C5F8146C00F0FC0000F015
:1051500033FB384600F030FB2070C5F8106C207827
:10516000F8BD00BF0000014070B515460B4C402350
:10517000C4F810380123C4F8103C0226C4F8146C9B
:10518000B14041F0400000F0FC0000F015FB284663
:1051900000F012FBC4F8106C70BD00BF00000140AD
:1051A00038B504460D460021FFF7BEFF207000F021
:1051B000FE0222702A43227085F00105A5720021AB
:1051C0002046FFF7D1FF38BD10B504460021FFF798
:1051D000ABFF207040F00102227000212046FFF753
:1051E000C3FF10BD38B504460D46C02901D0D029F3
:1051F00022D101232372637200212046FFF794FF1E
:10520000207000F00E00207028432070A27A82F0F7
:1052100001020243227000212046FFF7A5FF85F01E
:105220008005502D07D8237A042B01D9042323723B
:105230002046FFF7C9FF38BD0021FFF775FF20703A
:1052400000F00E002070400820700123834023727C
:1052500000236372D0E7000038B5084C4023C4F83F
:1052600010380123C4F8103C0225C4F8145C084629
:1052700000F0A2FAC4F8105C38BD00BF0000014085
:1052800008B50821FFF7E8FF08BD000070B582B03F
:105290000023ADF804308DF80630C37A03B304213F
:1052A000114800F0F8FA0128F9D0104D4023C5F854
:1052B00010380123C5F8103C0226C5F8146C0020F4
:1052C00000F07AFA04468DF80400002000F074FA29
:1052D0008DF80500C5F8106C40EA042002B070BDDE
:1052E000FFF7CEFFDBE700BF000C014000000140EC
:1052F00008B5FFF7CBFF00B208BD000000000000BA
:10530000D0B50446FFF7F4FF637AEBB1FFF7FAFC80
:105310001D49FFF7FFFDFFF7BBF819A3D3E90023F1
:10532000FFF70EF90022194BFFF70AF906460F4660
:10533000207AFFF79BF802460B4630463946FFF7C6
:1053400029FAFFF7D5FBD0BDFFF7DCFC0E49FFF7CC
:10535000E1FD6168FFF72AFDFFF79AF800220B4B89
:10536000FFF7EEF806460F46207AFFF77FF8024671
:105370000B4630463946FFF70DFAFFF7B9FBE2E777
:10538000FCA9F1D24D62004000FEFF4600408F4074
:1053900008B50621FFF760FF0120FFF7B1FE08BD49
:1053A00070B504460D4B4360012606720025457218
:1053B000C5720B4B0222C3F8102CFFF7E9FF3146F0
:1053C0002046FFF7EDFE29462046FFF7ADFE0640DA
:1053D00029462046FFF7E4FE304670BD6F120340B9
:1053E0000000014010B50C46B1F5805F01D340F6D6
:1053F000FF74134B0222C3F8102C4022C3F810286C
:105400000122C3F8102CA0B94022C3F81428C4F319
:10541000851000F0D1F9E0B2800000F0FC0000F04F
:10542000CBF9074B4022C3F810280122C3F8102CF7
:1054300010BD0128EBD1024B0122C3F8142CE6E782
:1054400000000140F8B5074600252C460BE00E4E43
:105450004FF48051304600F01AFA4FF48051304634
:1054600000F017FA01350B2D0BDC64084FF40061D6
:10547000054800F010FA0028E9D044F40064A4B212
:10548000E5E73C80F8BD00BF000C014070B5044664
:10549000124D4FF40071284600F0FBF9104E4FF406
:1054A0008051304600F0F3F94FF48051304600F05F
:1054B000F0F94FF40071284600F0E9F92046FFF7B3
:1054C000C1FFA01CFFF7BEFFC820FFF719FE4FF475
:1054D0000071284600F0DDF970BD00BF00080140F2
:1054E000000C014080B582B0FFF7EAFD00F094F8AF
:1054F00000F0FAF800F026F9394C2046FFF750FF8B
:10550000384B19782046FFF76DFE3748FAF7CAFE88
:10551000002000F02DFA01463448FDF7F7F801208D
:1055200000F026FA01463248FDF7F0F8022000F0BC
:105530001FFA01462F48FDF7E9F8032000F018FA9A
:1055400001462D48FDF7E2F802E0134600221A80DA
:105550002A4C21880020FFF745FF294B198801209C
:10556000FFF740FFC820FFF7CBFD1D4D2846FFF792
:105570008DFE244F38802846FFF7C2FE224E306051
:1055800000F1004030604FF44870FFF7B9FD1F4D47
:105590002846FFF77BFFB7F8008027883068FEF7C2
:1055A00077FFCDE90001424639461948FDF7AEF8CC
:1055B0006A8829881748FDF7A9F8238805339BB224
:1055C0002380B3F5805F01D3002222800C4A138828
:1055D00005339BB21380B3F5805FB9D3B5E700BF45
:1055E0004C030020C80100202C6000085C6000080B
:1055F0006C6000087C6000088C600008420300209A
:105600004003002044030020480300203C03002006
:105610009C600008BC60000870B54FF4C06000F0EA
:105620007FF901212C4800F03DF940F2026000F0C2
:1056300077F940F2036000F073F9284D4FF40063EE
:1056400001220421284600F0D1F84FF4A053012292
:105650001021284600F0CAF8214CD4F8143C43F439
:10566000A053C4F8143C1F4E4FF4007301221021C4
:10567000304600F0BBF8D4F8143843F40073C4F893
:105680001438022301221021284600F0AFF8D4F884
:10569000103C43F00203C4F8103C402301221021C7
:1056A000304600F0A3F8D4F8103843F04003C4F8B3
:1056B000103801231A461021284600F097F8D4F834
:1056C000103C43F00103C4F8103C042301221946A6
:1056D000284600F08BF870BD00023000000C01403D
:1056E000000001400008014010B540F2026000F0E7
:1056F00017F940F2117000F013F9114C0423032242
:105700001821204600F072F80823032204212046C5
:1057100000F06CF8A4F54444204600F0E7F94FF49B
:10572000E131204600F028FA0421204600F06DFA0D
:105730000821204600F063FA204600F05BFA10BD15
:105740000008014038B540F2036000F0E9F8174C5A
:105750004FF4804303220421204600F047F840F232
:105760000E7000F0DDF84FF4C06000F0D9F84FF48F
:10577000204303221821204600F038F80C4C204624
:1057800000F082F94FF482732360012363614FF4C8
:105790000073E3602823A361064D2146284600F0EC
:1057A0007CF9284600F090F938BD00BF000C01409C
:1057B000580300200038004010B5044602210A4872
:1057C00000F08CF90028F9D02146074800F081F953
:1057D0000121054800F082F90028F9D0024800F0C4
:1057E0007AF9C0B210BD00BF0038004070B501F0BA
:1057F0000F0E11F0100F03D0042A03D04EEA020E50
:10580000002209E04EF0030EC26B1A43C263F7E7B1
:1058100044610560013292B2072A14D801249440F1
:105820001C40F7D0066895004FF00F0C0CFA05FCF1
:1058300026EA0C060EFA05F535432829E8D0482952
:10584000E7D10461E5E7082203E0446145600132E5
:1058500092B20F2A1AD84FF0010C0CFA02FC1CEA83
:105860000304F4D04568A2F1080C4FEA8C0C0F2613
:1058700006FA0CF625EA06050EFA0CFC4CEA0505BC
:105880002829E2D04829E1D10461DFE770BD016138
:1058900070474161704783680B4201D00120704717
:1058A0000020704730B4002815DB1C4B5B68C0F348
:1058B000034482B200F4401CBCF5401F0ED010F42B
:1058C000801F1DD04FF0030C0CFA04F423EA0403EC
:1058D00043F0E06309E0114BDB69E8E723F0E063A4
:1058E0000E4D6C6824F0E0646C6019B1410D090143
:1058F0008A40134300280EDB084A536030BC7047CF
:105900004FEA505C4FEA0C1C02FA0CFC23EA0C0331
:1059100043F0E063E9E7014AD361EFE700000140AB
:10592000830903F1804303F504331A6800F01F0074
:10593000012181400A431A607047830903F18043C3
:1059400003F504331A6800F01F00012181400A4367
:105950001A607047830903F1804303F504331A6822
:1059600000F01F000121814022EA01021A60704705
:1059700010B588B084463D4C94E80F000DF1200E20
:105980000EE90F0002AB103494E8030083E8030033
:105990006B4683E80300364B5B68C3F38103012B3E
:1059A00057D0022B57D1324B5B6813F4803F0ED097
:1059B0002F4BDB6A13F0804F07D12E4A2C4B5B68CC
:1059C00013F4003F04D02C4A02E02C4AF6E72C4A9C
:1059D000274B5868C0F383405B6813F0006F01D019
:1059E00040F01000224B5B6813F0804F2BD040F04A
:1059F0002000A0F10F032F2B29D8013002FB00F06B
:105A00001B494B68C3F3031320336B4413F8102C6A
:105A100020FA02F24B68C3F3022320336B4413F8DD
:105A2000183C22FA03F44B68C3F3C22320336B44BF
:105A300013F8203C22FA03F3BCF1030F0DD8DFE882
:105A40000CF00F0E11130E28D3D80230D6E73F20EA
:105A5000D4E70848D4E70B48D2E7002000E010461E
:105A600008B010BD2046FBE71846F9E7E85D0008DE
:105A70000010024000366E01001BB700006CDC0213
:105A800000093D0000127A00002303604360836038
:105A9000C3604361836103617047026802F441524D
:105AA0000B681A434B681A438B681A43CB681A4336
:105AB0000B691A434B691A438B6913430360C3692B
:105AC00023F40063C3617047036843F0400303603D
:105AD0007047C1607047C06880B2704783680B42EE
:105AE00001D00120704700207047000008B5204B0E
