:020000040800F2
:10000000D02000203D290008B1280008B3280008AE
:10001000B5280008B7280008B9280008000000002B
:10002000000000000000000000000000BB280008E5
:10003000BD28000800000000BF280008C1280008F3
:100040006D29000871290008752900087929000820
:100050007D290008812900088529000889290008D0
:100060008D29000891290008952900089929000880
:100070009D290008A1290008A5290008A929000830
:10008000AD290008B1290008B5290008B9290008E0
:10009000BD290008C1290008C5290008C929000890
:1000A000CD290008D1290008D5290008D929000840
:1000B000DD290008E1290008E5290008E9290008F0
:1000C000ED290008F1290008F5290008F9290008A0
:1000D000FD290008012A0008052A0008092A00084D
:1000E0000D2A0008112A0008152A0008192A0008FC
:1000F0001D2A0008212A0008252A0008292A0008AC
:100100002D2A0008312A0008352A0008392A00085B
:100110003D2A0008412A0008452A0008492A00080B
:100120004D2A0008512A0008552A0008592A0008BB
:100130002DE9F04FA1B08246002016461D460291DF
:100140000B900DF144086FF000490AE016F8011B0E
:100150000298D0470028029000F0AF820B98401C14
:100160000B903078010001D10B98A8E22528EDD141
:100170000020059006900790089009900A9001E0F1
:1001800040F0010016F8011F2029F9D023290DD0D5
:100190002B2904D02D2906D030290AD00CE040F0BC
:1001A000020080B2EEE740F00400FAE740F00800F9
:1001B000F7E740F01000F4E72A290ED129682960FA
:1001C00051F8042B2960002A0D9204D5514240F0C9
:1001D00004000D9180B2761C11E000210D9109E020
:1001E0000D99494505D001EB810302EB43013039FC
:1001F0000D91761C3278A2F130010A29F0D33178C2
:100200002E2903D04FF0FF310C911DE016F8011F8D
:100210002A2907D129682960761C51F8042B296006
:100220000C9211E000210C9109E00C99494505D090
:1002300001EB810302EB430130390C91761C3278DB
:10024000A2F130010A29F0D3ADF838000FF6D8201A
:10025000317800F077FD08B116F8010B8DF83A00FF
:100260009DF83A00682802BF31786829622005D0DD
:100270006C2804BF30786C2803D171208DF83A00C7
:10028000761C11A8049016F8017BB7F1250024D044
:100290002038022840F2C380133800F0E8800B3881
:1002A00000F05681401E00F02C81401E022840F2D2
:1002B000B680001F00F02581401F00F08180401EA5
:1002C00000F0D580401E24D0C01E0BD0801E00F050
:1002D000CE80C01E00F0CB8044E125208DF8440084
:1002E000012049E12868286050F8044B28600394F5
:1002F0000C9F002F04D5204600F030FD074606E095
:100300003A460021204600F045FD00B1071B069744
:1003100033E129682960002251F8040B296000218B
:10032000CDE9000111A80390DDE900019142049F8D
:1003300008BF90424FF03C0C01D10C9AC2B100F0C2
:100340000F033033DBB23A2BA8BF2733ACF10102E5
:100350000009BB54944640EA017009090022914209
:1003600008BF904204D0039A07EB0C039A42E6D3ED
:1003700007EB0C000390CCF13C010C9806918142F4
:1003800009DA401A08904FF6EF71BDF838000840BE
:10039000ADF83800F1E0002840F1EF809DF838001A
:1003A00000F01400102840F0E8800D98059A801A9B
:1003B000089A801A401A0128C0F2DF800890DCE019
:1003C0009DF83A0062281AD0682806D06A280CD016
:1003D0006C281CD0712808D019E02868286050F8D3
:1003E000041B28600B980880C7E02868286050F834
:1003F000042B28600B98C117C2E90001BDE02868F2
:10040000286050F8041B28600B980870B5E0286835
:10041000286050F8041B28600B980860ADE028683D
:10042000C01D20F007022A60D2E9000108322A60CC
:10043000CDE90001002902D505982D210AE0BDF87B
:100440003800810702D505982B2103E0C00705D5A8
:100450000598202108F80010401C059011A8059966
:10046000084403903946684600F0E8F985E09DF8B5
:100470003A006C280DD0712818BF6A2809D1286865
:10048000C01D20F007022A60D2E9000108322A606C
:1004900005E02968296051F8040B29600021CDE9A5
:1004A00000019DF83A00682803D1DDE9000180B21F
:1004B0000BE0622803D1DDE90001C0B205E0742839
:1004C00018BF7A2804D1DDE900010021CDE900013F
:1004D0009DF83800000732D5DDE900230020834273
:1004E00008BF82422BD047F02000782827D10598FA
:1004F000302108F80010401C411C059108F80070DC
:100500001DE09DF83A00294600F0DCF8CDE9000135
:10051000DDE9002300218B4202DA05982D210AE053
:10052000BDF83800810702D505982B2103E0C007EC
:1005300005D50598202108F80010401C059011A849
:100540000599084403903946684600F0F2F814E033
:10055000012005902868286050F8041B28608DF859
:1005600044100AE025208DF8440001200590380051
:1005700003D088F80170022005900D980599401A63
:100580000899401A0699401A0999401A0799401A81
:100590000A99471A9DF83800400710D42020012FEF
:1005A0008DF840000BDB3C46012310AA69465046FB
:1005B00000F0A2FB002840F08080641EF4D1DDF83A
:1005C00014B0BBF1000F11AC0CD014F8011B029851
:1005D000D0470028029070D00B98401CBBF1010B53
:1005E0000B90F2D130208DF84000089C012C09DBE3
:1005F000012310AA6946504600F07EFB00285CD11A
:10060000641EF5D1DDF818B0039CBBF1000F0CD0CF
:1006100014F8011B0298D047002802904DD00B9887
:10062000401CBBF1010B0B90F2D130208DF8400043
:10063000099C012C09DB012310AA6946504600F0F1
:100640005BFB002839D1641EF5D103980699DDF8CB
:100650001CB04418BBF1000F0BD014F8011B02981A
:10066000D047029048B30B98401CBBF1010B0B9094
:10067000F3D130208DF840000A9C012C08DB0123C7
:1006800010AA6946504600F037FBB0B9641EF6D197
:100690009DF8380040077FF564AD2020012F8DF8CC
:1006A0004000FFF65EAD012310AA6946504600F0F7
:1006B00023FB10B97F1EF6D153E54FF0FF3021B078
:1006C000BDE8F08F622826D068281DD06A2808D09F
:1006D0006C2827D0712804D0742823D07A280CD015
:1006E00020E00868C01D20F007000860D0E9002362
:1006F000083008601946104670470A680A6052F8C8
:10070000040B0A60002170470A680A6052F8040B63
:100710000A6000B20BE00A680A6052F8040B0A6033
:1007200040B204E00A680A6052F8040B0A60C1177C
:1007300070472DE9F343054608462F696F2808BF27
:10074000082405D041F02001782914BF0A24102480
:100750003C26D5E90023642818BF692890469946AD
:1007600006D100218B4203DAD8F1000869EB490970
:100770000020814508BF80450CD1286B50B9082C5A
:1007800038D195F83800000734D530203B2687F85B
:100790003B002FE0701E0090064640464946224628
:1007A000E31700F023FB02F13000C0B23A2803DB6C
:1007B0009DF8041051390818B8554946404622465C
:1007C000E31700F013FB804689460020814508BFEF
:1007D000804503D0E868B9198842DBD3082C09D1D9
:1007E00095F83800000705D5B85D302802D0761E90
:1007F0003020B855B919E960C6F13C00296BA861F1
:10080000884208DA081A28624FF6EF71288F0840EC
:100810002887BDE8F38300290ED595F8381001F03C
:100820001401102908D1696B6A69891A2A6A891A20
:100830000E1A012EA8BF2E62BDE8F3832DE9F34FF7
:100840008BB0D0E90089006B002801AF48BF0620BB
:1008500005D404BF41F02000672802D101200B9984
:10086000086340F2FF720B984168C1F30A5090424E
:1008700020D1080302BF0B98006800280AD10B9909
:10088000032088619DF8300061381A2858D30FF290
:10089000AC4109E00B99032088619DF83000613874
:1008A0001A284AD30FF28C410B98C068032200F03B
:1008B00015FBFFE0012807DA0B9800F04AFB01283E
:1008C00002DB00230026ECE00B9ADFF854B15268FB
:1008D00040F2FE3161F31E520B994A6040F2FE3144
:1008E000401A00B247F2975148434E4990FBF1F647
:1008F000404649460022002300F04EFB36B238BF86
:1009000089F00049C6F10707012F92461BDBF80763
:1009100007D552465B464046494600F055FB8046A7
:1009200089465046594652465B467F1000F04CFBC4
:10093000002F82468B46EAD126E00FF2F431B3E76E
:100940000FF2F431B0E77F420024374D12E0F80790
:1009500007D552465B462046294600F035FB044643
:100960000D465046594652465B4600F02DFB7F101F
:1009700082468B46002FEAD14046494622462B4606
:1009800000F0F4FB804689469DF830000B99DFF8B3
:100990009CB0096B40F02005662D0CBF06F10A00E3
:1009A00006204718142FA8BF132730208DF8040005
:1009B0000DF10504012F3BDB4046494600F002FDE6
:1009C000014604F1080204234FF00A0CB1FBFCFCC1
:1009D0000CEB8C04A1EB4401303102F8011C0A211C
:1009E000BCFBF1FE0EEB8E04ACEB440430345B1E1A
:1009F000714602F8024DE7D1083F012F02F10804C9
:100A0000D8DB00F0F5FC02460B464046494600F0B4
:100A1000FDFC00225B4600F0D7FA80468946CBE712
:100A200000002440A08601000000F03F84D79741D9
:100A30000DF10500201A0DF1050702E0401E761E9B
:100A40007F1C39783029F9D0662D08BF711C03D07E
:100A5000652D0CBF012100210B9A126B8B181BB264
:100A60009842B8BF03461BB219001AD4814204DA77
:100A7000785C3528A8BF392000DA30207A18521E59
:100A800000E05B1E12F80149491E8442F9D0392862
:100A900002D1785C401C7854002902D57F1E5B1C73
:100AA000761C36B29DF830100B9800961BB23A4671
:100AB00000F003F80DB0BDE8F08F2DE9F04786B0E7
:100AC00006468A4690461D4600F07DFD012D406A8F
:100AD000376B90F8009002DA01250FF264284AF093
:100AE0002000BDF93840662808BF641C13D0672871
:100AF00040F08A8014F1040F75DBBC4273DA96F87B
:100B00003800641C000702D4BD42B8BF2F4624B28F
:100B10003F1B48BF002724B2F068B169012C23DADB
:100B20004A1C30234354012F03DA96F8380000079B
:100B300003D5F06800F80290521CE742B8BF7C422F
:100B400024B260427062E719AF42B261B8BF3D465D
:100B5000F068B3692DB2F5612A464146184400F0A9
:100B6000BDF9781BB062B0E022469542084416DA1F
:100B70002A46414600F0B2F9B1696918601B012F9D
:100B8000B161706203DA96F83800000705D5F068A5
:100B900000F80190F069401CF061B76295E04146B1
:100BA00000F09CF9B06920182D1B012F03DA96F88C
:100BB0003810090703D5F16801F80090401CB061B6
:100BC0002DB2AF42B8BF3D46F068B3692DB22A4698
:100BD00008EB0401184400F081F9B0692818B061ED
:100BE000781B706271E0BD4204DA96F8381009078C
:100BF00058BF2F467F1E48BF0027BAF1670F0CBFB2
:100C00004FF0650A4FF0450AB169F368481CB061BE
:100C1000012F18F8012B5A5403DA96F838100907F7
:100C200017D5F168431CB36101F80090012F10DB68
:100C30006D1E2DB2AF42B8BF3D46F0682DB22A46B8
:100C40004146184400F04AF9B0692818B061781B91
:100C50007062F068B1690144200081F800A004D4FA
:100C60002B20487001F1020804E02D224A7001F1A6
:100C700002086442002502AF08E00A22684600F03C
:100C8000BBFC019807F8010B6D1C009C21B20129E7
:100C9000F3DA022D06DA4AF02000652804BF30207E
:100CA00008F8010B4DB9302008F8010B07E06D1E64
:100CB00002A8405D303008F8010B012DF7DAF0682A
:100CC000B1690844A8EB0000F06196F8380000F024
:100CD000140010280DD17069B1690818716A0818DC
:100CE000F1690818B16A0818716B8842BCBF081A0C
:100CF000306206B0BDE8F087F8B504460D461646EA
:100D00001F46002077B116F8011BA868A047A8600D
:100D100030B1E86A401CE86200207F1EF3D1F2BDCA
:100D20004FF0FF30F2BD0000686A6C747A4C00002E
:100D30006E616E004E414E00696E6600494E46007F
:100D4000300006080278C9B28A421AB11CBF10F8F6
:100D5000012FF9E718BF00207047402000F1010380
:100D6000810704D010F8011B89B18107FAD102680C
:100D7000B2F10131914311F0803F04BF50F8042FCC
:100D8000F6E710F8011B11B110F8011BFBE7C01AC0
:100D900070470000C9B2830706D0521E22D310F854
:100DA000013B9942F7D11FE0083A13D302F1040244
:100DB00041EA012141EA014150F8043B121F21BFE1
:100DC0004B40A3F1013C2CEA030C1CF0803FF3D014
:100DD000C9B2001F083210F8013B521E28BF91EA29
:100DE000030FF8D818BF0120401E70471B4213D1D3
:100DF000094236D12AB18446B0FBF2F002FB10C2A0
:100E0000704700F001BCFCD30022002370470B00A8
:100E10000200002100207047904271EB030CF6D3D2
:100E200070B5B1FA81F4B3FA83F52C1BA340C4F179
:100E3000200532FA05F63343A2405FF00046E64053
:100E400002E05B085FEA3202841A71EB030524BFFB
:100E5000204629467641F4D302000B0030000021E1
:100E600070BD012ACFD970B5140C20D0B1FA81F42D
:100E7000B2FA82F5C4F120046419B4F12006D6D385
:100E8000B2405FF00044F440002502E052085FEAFF
:100E90003303C61A71EB020E24BF3046714664411B
:100EA0006D41F3D302000B002000290070BD0C46F9
:100EB000B1FBF2F102FB11452D0445EA1045B5FBEB
:100EC000F2F402FB145580B240EA0545B5FBF2F09E
:100ED00002FB105240EA044070BD000062B38B0771
:100EE00008D0521E11F8013B00F8013B00F02480AD
:100EF0008B07F6D1830740F0208000BF103A07D35C
:100F000030B4B1E83810103AA0E83810F9D230BC4B
:100F1000530724BFB1E80810A0E8081044BF51F8F7
:100F2000043B40F8043BD20724BF31F8022B20F8E1
:100F3000022B44BF0B7803707047083A07D3B1E81F
:100F40000810083A40F8043B40F804CBF7D25307A6
:100F5000E4E730B4436803F000420121C3F3130314
:100F60004360002B04BF0368002B08D10DE0036829
:100F7000DD0F45EA440444605B000360491E446899
:100F8000E302F4D5C4F31303436043681A43426099
:100F9000084630BC704700004FF4001C1CEB410FAA
:100FA00094BF1CEB430F09E041EA030C50EA4C0CE0
:100FB00052EA0C0C03D2994208BF9042704714BF0A
:100FC0008B42824270470000B0B581EA030C0CF0FE
:100FD000004C40F2FF7515EA11541DBF15EA135776
:100FE000AC42AF4239E0E41923EA455343F480139D
:100FF000C90241F0004141EA505EC7021100A7FB5F
:10100000020200284FF00000EEFB01204FF000012B
:10101000E3FB072118BF42F00102401800214941BB
:10102000E3FB0E01A4F580640F0302D2520040419D
:10103000494154F101046CDD470872F1004250F15E
:10104000000051EB0451A1F580115CBF41EA0C0195
:10105000B0BD4CEA05510020B0BD05EA1357AC42C3
:1010600014BFAF4241E050EA410E1CBF52EA430EAA
:1010700002E061460020B0BD24423C441BD15FEA3F
:10108000070EF6D0090302BF01460020AEF1140E90
:10109000B1FA81F7AEEB070401FA07FE0C37C7F18E
:1010A000200100FA07F7C8404EEA000E23EA455334
:1010B00043F48013A2E733F00043B3FA83F704BF8D
:1010C000B2FA82FE77440B3FE41BB7F1200E2FBF2C
:1010D00002FA0EF3BB40C7F1200E22FA0EFE38BF13
:1010E00043EA0E03BA40641C82E750EA410E14BF83
:1010F00052EA430E6FF000014FF4001717EB430F55
:101100008ABF194617EB410FB5E74CEA055100209D
:10111000B0BDD4F10104B4F120070FDAC4F1200707
:10112000520828BF42F0010210FA07F501FA07F74A
:10113000E1BF2A43E0403843E1400FE0352C98DC22
:10114000C7F1200452EA400220FA07F218BF42F029
:10115000010231FA07F0A1400A43002172F1004276
:1011600050F1000051EB0C01B0BD00002DE9F04141
:1011700040F2FF7581EA030C0CF0004C15EA1154A3
:101180001DBF15EA1357AC42AF42E9E0BC41C1F3C1
:101190001301C3F31303801A994143F4801304D25B
:1011A000641E4000494180185941C90241EA50512A
:1011B000B1FBF3F603FB1611A2FB0675D7EBC020BB
:1011C000A94102D2761E80185941C90241EA505104
:1011D000B1FBF3FE03FB1E11A2FB0E75D7EBC02083
:1011E000A94103D2AEF1010E80185941890241EAAA
:1011F0009051760546EA8E2EB1FBF3F603FB1611ED
:10120000A2FB0675D7EB8020A94102D2761E80187A
:101210005941C90241EA50514EEA060EB1FBF3F6BC
:1012200003FB1611A2FB0675D7EBC020A94102D221
:10123000761E80185941C90241EA5051B1FBF3F7BB
:1012400003FB1711A2FB0735D3EBC020A94167F1BF
:1012500000070CBF004247F0010766F3D5274FEAAD
:101260001E31B80814F5806414DDBD0775F1004225
:1012700050EB0E5051EB045111F5801F5CBF41EA59
:101280000C01BDE8F0814CF07F6141F0E0410020AD
:10129000BDE8F081BD076D0840EA0E5041F48011B1
:1012A000D4F10104B4F120060ADAC4F120060200E8
:1012B000E04001FA06F3E1401843B24015430EE066
:1012C000342C14DCC6F1200445EA40056D0820FAF0
:1012D00006F2154321FA06F0A1400D43002175F1F5
:1012E000004250F1000051EB0C01BDE8F0810020FC
:1012F0005FEA0C01BDE8F081CFB992185B41B3FA07
:1013000083F704BFB2FA82F6BF190B3FB7F120068C
:101310002FBF02FA06F3BB40C7F1200622FA06F6F9
:1013200038BF3343BA401CB1E419641E2FE77F4233
:1013300031F00041B1FA81F404BFB0FA80F6A4198B
:101340000B3CB4F120062FBF00FA06F1A140C4F116
:10135000200620FA06F638BF3143A0403C1B16E7B2
:10136000AC421ABF05EA1357AF4214E050EA4106F7
:101370001CBF52EA4306BFE750EA410730466146C8
:101380001CBF41EA0551BDE8F08152EA430C08BF99
:10139000C143BDE8F08100204FF4001616EB410F69
:1013A00098BF16EB430F08BF16EB410F24BFC14394
:1013B00005E016EB430F0CBF61464CEA0551BDE852
:1013C000F0810000400D40EAC120490080F00D800E
:1013D00040F00040490DA1F58061491C05D4D1F1D0
:1013E0001F0154BFC840C01770474FF0000070473E
:1013F000010000BF09D0B0FA80F18840C91CC1F5D6
:101400008461090501EBD02140057047F0B44FF02D
:10141000004591EA030F44BF6B4000F0F7B800BFEE
:10142000841A71EB030604D26E40001BB1411219FD
:1014300073414FF4001C1CEB410F34BF7CEB43069F
:1014400084E00C0DA4EB1356362E7DDC012E43DC1C
:1014500045EAC32343EA525312BFD20292025B0809
:10146000240545EAC12141EA5051D2EBC0209941FF
:1014700025D407D1B0FA80F610FA06F164D0002026
:10148000203608E0B1FA81F6B140C6F1200220FA18
:1014900002F21143B0404FEAF474B4EB465434F016
:1014A00001064FEA74040AD8D6F50016760D04F04A
:1014B0000044F04061FA06F25040F1404840C00A52
:1014C00040EA415021F0004128BF5FEA500550F149
:1014D000000044EBD12137E045EAC323DB0A45EAAB
:1014E000C121C90AB6F120050EDD42EA0242120C02
:1014F000C5F1200603FA06F6EB4042EA06056D4206
:10150000984161F100010DE062FA06F5F2405540A4
:1015100063FA06FC82EA0C02F3405A406D429041A5
:1015200061EB030111F4801F05D1641E620502D036
:101530006D004041494121F48011430875F1004399
:1015400050F1000041EB0451F0BC70471CEB410F1F
:1015500015D223F0004352EA43060BD04FEA4C0C5D
:10156000BCEB410F04D80C0D661E342EB7DDEBE743
:10157000801A994150EA410608BF0021E4E708BFFC
:101580001CEB430F28BF6FF00001DDE780B5134867
:10159000C046C0460FF24C020FF2440101604262A5
:1015A00041600FF24402826381600FF24402C16025
:1015B0000161416181618162C16201634163C26312
:1015C0000164416401BD10B50448C046C0460446EC
:1015D000206808B9FFF7DAFF204610BD440000205C
:1015E000000000002E00000066616C7365000000C2
:1015F000747275650000000091FBF2F303FB121199
:10160000C0E900317047000070470000841A71EB98
:10161000030603D2001BB141121973414FF4001CA1
:101620001CEB410F34BF7CEB430443E00C0DA4EBF7
:101630001356352E50DC45EAC323DB0A45EAC121A7
:10164000C912B6F120050DDD63FA05F6EB4086EA16
:101650000305124218BF45F00105C01851F1000101
:101660000CD213E062FA06F5F2405540F3415A40BD
:10167000B340F3405A408018594107D349085FEA04
:1016800030005FEA350528BF45F0010501F58011FE
:10169000420875F1004250F1000041EB0451F0BCEA
:1016A0004FF4001C1CEB410F38BF70470020090DA0
:1016B000090570471CEB410F10D252EA43060BD0CC
:1016C000BCEB410F05D80C0DAB43661E342EB5DDC7
:1016D00002E0AB4380185941F0BC7047F0BC704742
:1016E00038B50400DFF82403606001202072002078
:1016F00060720020E0720220DFF8141308602000FE
:1017000000F01CF800250121200000F06EF8DFF841
:1017100004030178200000F02FF9050015F0010501
:101720000021200000F061F82800C0B232BD80B571
:10173000DFF8E412097800F057F901BD80B5DFF851
:10174000DC12097800F050F9012000F0B7F901BD72
:1017500038B504000D00EDB2C02D02D0EDB2D02D91
:1017600004D1012020720120607215E0DFF8A4028C
:101770000178200000F000F92070207810F00E00B1
:1017800020702078C0B240082070012094F9001029
:101790008840207200206072DFF878020178200013
:1017A00000F0EAF82070207810F00E002070207809
:1017B000284320702078A17A91F00101084320701D
:1017C0002278DFF850020178200000F0F3F8EDB243
:1017D000B5F18000512807D2207A052801DB0420CA
:1017E0002072200000F078F831BD38B504000D00FB
:1017F000DFF820020178200000F0BEF82070207889
:1018000010F0FE00207020782843207095F0010031
:10181000A0722278DFF8FC010178200000F0CAF8FD
:1018200031BD000070B50600300000F068F800EE31
:10183000900A9FED500A707A002826D0B8EEE00A90
:101840007748D0ED000A80EE200A10EE100A00F072
:1018500055F9744A744BFFF7B7FB0022734BFFF73F
:10186000B3FB04000D00307AFFF7C2FD0022704B7D
:10187000FFF7AAFB02000B0020002900FFF776FC0F
:1018800000F064F900EE100A25E0B8EEE00A6448C2
:10189000D0ED000A80EE200AD6ED010A20EE200AE3
:1018A00010EE100A00F02AF90022604BFFF78CFBC3
:1018B00004000D00307AFFF79BFD00225C4BFFF720
:1018C00083FB02000B0020002900FFF74FFC00F013
:1018D0003DF900EE100A70BD10B504004D480178C6
:1018E000200000F049F82070207850F001002070AE
:1018F000227848480178200000F05CF810BD80B5DF
:1019000000F005F8ADF80000BDF9000002BD80B59B
:1019100001006846002202600020C87A002802D137
:101920000800FFF704FF0421424800F0C3F9012832
:10193000F9D0402040490860012035490860022064
:101940003E4908609DF8020000F0BAFA8DF80000E8
:101950009DF8020000F0B4FA8DF8010002202C4935
:1019600008609DF800009DF8011051EA002080B247
:1019700002BD00000000000010B50400002020702F
:101980002F48007850EA810040212B4A1160012144
:101990001F4A11600221294A1160C0B200F090FA7A
:1019A0000020C0B200F08CFA2070022018490860B4
:1019B000207810BD10B5140040201F4A106001208F
:1019C000134A106002201D4A10601E48007850EA39
:1019D0008100C0B200F074FA2000C0B200F070FACA
:1019E00002200B49086010BD80B54020124A1060EB
:1019F0000120074A10600220104A10600800C0B29F
:101A000000F05EFA02200249086001BD6F12034037
:101A1000100C0140920D0008430D0008420D000813
:101A200068290008FCA9F1D24D62004000408F40B7
:101A30000000F03F000C014010080140140C014070
:101A40005B0D00085A0D000840B2002808D50901B6
:101A5000234A40B210F00F00104400F8041C03E0C9
:101A60000901204A40B21154704780B5411EB1F1BE
:101A7000807F01D301200EE0401E1B4908600F212A
:101A80005FF0FF30FFF7E0FF0020184908600720F3
:101A900017490860002002BD80B5164800684FF461
:101AA0007A71B0FBF1F0FFF7E0FF002800D0FEE70D
:101AB00000215FF0FF30FFF7C7FF01BD0E4908604E
:101AC0000D4800680028FBD170470B4800680028CB
:101AD00004D009480068401E0749086070470000AC
:101AE00018ED00E000E400E014E000E018E000E0A1
:101AF00010E000E000000020502100205FF0FF0C0B
:101B00001CEAD05114BF614506E0C110400721F026
:101B1000E04101F16051704779B900F000410002E5
:101B20000AD0B0FA80FC00FA0CF001F16051A1EB90
:101B30000C5101EBD0214005704741020CBF40F42D
:101B4000E0016FF000010020704700004FEAF17CD7
:101B5000BCF1E04C2CBFBCF5001F11E05FEA4C0C5F
:101B600034BFBCF17F5F2EE05FEA9C0C4FEA0C1C97
:101B70004FEA3C0CC10071F100414CEB50707047D2
:101B8000C90241EA5051C00218BF41F0010141F0C1
:101B900000414FEA6C50C0F10900212810D240EA00
:101BA000CC7CCCF1200C11FA0CF070F10040CCF19F
:101BB000200C21FA0CF00CF0004C40EB0C007047AC
:101BC0004FEACC707047490011F5001F04D84FEA66
:101BD000CC10FF30C0057047C8177047F0B4002420
:101BE000002511F00F04CD060CD5042A09D154F0BC
:101BF000030410F13C0212681A4310F13C052A60FC
:101C000000E01443002209E0482905D1012696404E
:101C10001E4010F110073E600560521C92B2082A67
:101C200019D21D00D540ED07F7D505680F2617001E
:101C3000FFB2BF00BE40B5431600F6B2B60014FABC
:101C400006F635432829DFD1012696401E4010F1C3
:101C500014073E60E0E708220AE0482905D1012682
:101C600096401E4010F110073E60061D3560521C64
:101C700092B2102A1CD21D00D540ED07F7D5051DE4
:101C80002D680F261700083FFFB2BF00BE40B543C6
:101C90001600083EF6B2B60014FA06F635432829B7
:101CA000DBD1012696401E4010F114073E60DCE7B0
:101CB000F0BC704708300068084201D0012000E005
:101CC0000020704730B400220024002300240028A4
:101CD00002D51C4A136801E01B4A1368C0F3034491
:101CE00082B210F44015B5F5401F08D133F0E0631F
:101CF000154C246834F0E064134D2C6010E0C502EC
:101D000006D5032515FA04F4A34353F0E06307E076
:101D1000440DE4B2240112FA04F4A34353F0E06347
:101D2000C9B2002905D0410DC9B2090112FA01F169
:101D30000B43002802D50348036001E0024803601A
:101D400030BC70471C0001400400014080B54FF4D6
:101D5000C06000F0E5F801216748FFF7B3FF40F2EB
:101D6000026000F0DDF840F2036000F0D9F84FF4B3
:101D70000063012204216148FFF730FF4FF4A053B4
:101D8000012210215D48FFF729FF5D48006850F4EB
:101D9000A0505B4908604FF400730122102159489C
:101DA000FFF71CFF5848006850F40070564908605F
:101DB0000223012210215148FFF710FF5348006809
:101DC00050F00200514908604023012210214D4883
:101DD000FFF704FF4E48006850F040004C4908608F
:101DE0000123012210214548FFF7F8FE474800680B
:101DF00050F00100454908600423012204213F48B6
:101E0000FFF7ECFE01BD80B540F2026000F088F8FB
:101E100040F2117000F084F804230322182139489D
:101E2000FFF7DCFE0823032204213648FFF7D6FE25
:101E3000384800F04BF95FF4E131364800F084F99E
:101E40000421344800F0DFF90821324800F0CAF9D3
:101E5000304800F0BFF901BD80B540F2036000F0EA
:101E60005FF84FF48043032204212448FFF7B6FEB5
:101E700040F20E7000F054F84FF4C06000F050F8DB
:101E80004FF42043032218211C48FFF7A7FE2248E5
:101E900000F0DEF94FF482701F49086001201E49EE
:101EA00048614FF400701C49C86028201A498861B5
:101EB00019491A4800F0DBF9184800F0F3F901BDA0
:101EC00010B5040000200221144800F0F8F90028A1
:101ED000F9D0E4B2210089B2104800F0E8F90121FC
:101EE0000E4800F0ECF90028F9D00C4800F0E3F9B6
:101EF000C0B210BD0000000000023000000C014024
:101F0000140C01400008014014080140100C01406D
:101F1000100801400044004020210020003800400B
:101F200000B2810901F1804111F5043109680122F3
:101F300010F01F039A40114300B2800900F1804065
:101F400010F504300160704700B2810901F1804151
:101F500011F504310968012210F01F039A40114362
:101F600000B2800900F1804010F504300160704734
:101F700000B2810901F1804111F5043109680122A3
:101F800010F01F039A40914300B2800900F1804095
:101F900010F504300160704770B588B0040000256A
:101FA00004A843491022FEF7A9FF02A84149D1E93C
:101FB0000023C0E9002368463F49D1E90023C0E976
:101FC000002339480068C0F38100002803D00228AC
:101FD00005D002D33AE0394839E0394837E0324891
:101FE000006810F48030B0F5803F11D12F480068B0
:101FF00010F08040002801D1314800E031482A49E2
:10200000096811F40031B1F5003F02D1400800E049
:102010002D4825490968C1F38341234A12681201FA
:1020200001D551F01001204A1268520001D551F03B
:1020300020010F2901D2891C06E0B1F10F02302ADC
:1020400001D2491C00E03F21484300E01B481649EB
:102050000968C1F3031304A9CE5C0100F140124AE0
:102060001268C2F3022302AAD65C0A00F2400E4BA9
:102070001B68C3F3C2236E46F65C0B00F340E4B268
:10208000002C05D0022C07D004D3032C06D007E087
:10209000050005E00D0003E0150001E01D00FFE76D
:1020A000280008B070BD0000041002402C1002404F
:1020B000EC280008582900086029000800127A005E
:1020C00000366E01006CDC0200093D0080B53C4921
:1020D000884214D03B4988421AD03B49884220D0DC
:1020E0003A49884226D03A4988422CD140F20E30F3
:1020F000FFF72AFF40F20E30FFF73AFF23E040F2ED
:102100001140FFF721FF40F21140FFF731FF1AE0C5
:1021100040F21240FFF718FF40F21240FFF728FF8D
:1021200011E040F21340FFF70FFF40F21340FFF7BA
:102130001FFF08E040F21440FFF706FF40F2144092
:10214000FFF716FFFFE701BD38B504000D000020C2
:102150000021002200222100194A91420FD0194A81
:10216000914210D0184A914211D0184A914212D08F
:10217000174A914213D10320FFF70EFF0FE0022010
:10218000FFF70AFF0BE00220FFF706FF07E002203F
:10219000FFF702FF03E00220FFF7FEFEFFE710EB70
:1021A0005500B0FBF5F24FF6F07010EA020112F0A4
:1021B0000F0252EA010080B214F10801086031BD3B
:1021C0000044004000480040004C004000500040E7
:1021D0000038014010F10C01096851F400510C3035
:1021E0000160704710F10C02126832F0080210F121
:1021F0000C031A6010F10C02126811F0080111436F
:102200000C300160704710F10C02126832F00402C9
:1022100010F10C031A6010F10C02126811F00401A5
:1022200011430C3001607047C905C90D001D0160E4
:102230007047C1F3891210FA82F0006811F01F0193
:10224000C840C00701D5012000E000207047000011
:102250000021016000214160002181600021C160F6
:10226000002141610021816100210161704700224C
:10227000026812F441520B681A434B681A438B6888
:102280001A43CB681A430B691A434B691A4389698D
:102290000A43026010F11C01096831F400611C302E
:1022A00001607047016851F040010160704789B2D8
:1022B0000C30016070470C30006880B27047083005
:1022C0000068084201D0012000E0002070470000B3
:1022D00080B56548006850F4700063490860634841
:1022E000006850F00100614908606048006880079C
:1022F000FBD55F48006850F080005D490860002011
:10230000009002E00098401C009000985028F9D3FB
:102310005748006850F09000554908600020009030
:1023200002E00098401C009000985028F9D35048D3
:102330000068800880004E4908604C4800684D499C
:1023400008404A4908605FF41F004B49086047484D
:10235000006830F480204549086000204449086046
:1023600000204649086000F001F801BD80B500F08A
:1023700001F801BD002000213C49096851F4803179
:102380003A4A1160401C3949096811F400310029AA
:1023900003D14FF6FF718842F4D1344800688003BE
:1023A00000D4FEE73648006850F080503449086099
:1023B0003448006850F44040324908602C480068B6
:1023C0002B4908602A4800682949086028480068A5
:1023D00050F48060264908602548006830F4403099
:1023E000234908602248006850F4403020490860C2
:1023F0001F480068244908401D4908601C480068BF
:1024000050F400101A4908601848006850F08070B5
:1024100016490860154800688001FBD51948006816
:1024200050F480301749086018480068C003FBD595
:102430001448006850F400301249086013480068DE
:102440008003FBD50A4800688008800008490860BE
:102450000748006850F00200054908600448006819
:102460000007FBD57047000088ED00E00010024037
:1024700004100240FFFFF6FE081002402C1002403C
:102480001C10024000700040FFFFC3B70470004002
:1024900000B583B0FFF700FBFFF758FCFFF7B3FC74
:1024A000FFF7DAFC4548FFF71BF945480178434838
:1024B000FFF74EF9434800F09FF80020FFF76CFD4E
:1024C0000100414800F098F80120FFF765FD010088
:1024D0003E4800F091F80220FFF75EFD01003C4805
:1024E00000F08AF80320FFF757FD0100394800F09B
:1024F00083F839480188002000F090F837480188B7
:10250000012000F08BF8C820FFF7D8FA2B48FFF71E
:10251000FEF9334908802948FFF784F9314880EDF6
:10252000000A30482F4991ED000AB1EE400A80EDD3
:10253000000A4FF44870FFF7C1FA2B4800F0C7F8C3
:1025400028480068FFF7DAFACDE90001244802883C
:1025500022480188254800F04FF823484288224845
:102560000188234800F048F81B480088401D1A499C
:10257000088019480088B0F5805F02DB002016490A
:10258000088016480088401D1449088013480088B8
:10259000B0F5805FADDB002010490880A9E710B5D9
:1025A000040007211348FFF744FE0028F9D021005A
:1025B00089B21048FFF738FE200010BD3C210020F2
:1025C000CC00002098270008FC2800080C290008EF
:1025D0001C2900082C290008562100205821002021
:1025E00054210020482100204C21002038280008D8
:1025F00098280008004400400EB400B582B003A93A
:10260000009102466B460121034878440A30FDF7E9
:102610008FFD06BC5DF810FBB102000010B50C0088
:10262000A4B2B4F5805F01DB40F6FF740221144AC6
:1026300011604021134A11600121114A1160C0B29A
:10264000002803D140201049086005E0C0B20128ED
:1026500002D101200D490860A4B2A01110F03F0082
:10266000C0B2FFF72DFCA000C0B2FFF729FC40204C
:102670000449086001200249086010BD0000000004
:10268000100C01401008014014080140140C0140D6
:1026900070B504000025002615E0ADB26D084FF4BA
:1026A00000611D48FFF706FB002801D055F40065C6
:1026B0004FF480511848103001604FF48051164893
:1026C00014300160761C0C2EE7DB258070BD10B540
:1026D00004004FF400711148143001604FF4805130
:1026E0000D48103001604FF480510B4814300160E8
:1026F0004FF400710948103001602000FFF7C8FF57
:10270000A01CFFF7C5FFC820FFF7D8F94FF40071F0
:1027100002481430016010BD000C01400008014067
:1027200019E050F8041BCB0744BFA9F10103591865
:10273000121F0023042A41F8043BF9D25FEA827C8D
:102740000B4604D54FF0000CA1F800C09B1CD1072C
:1027500044BF0021197050F8042B002AE1D17047C2
:1027600030B5016842688468014401EB5203D20726
:1027700048BF4C44994201D10C3030BD11F9012BB6
:1027800011F8015B002A04F8015B02D5521CF9D153
:10279000F0E7521EF4D5EDE70D0A474433324633D5
:1027A000303343432044656D6F2050726F67726110
:1027B0006D206F6620426F617264205072696D6592
:1027C0002D533733503A0D0A0000000010B5074969
:1027D00079441831064C7C44163404E00A68081D1C
:1027E000114488470146A142F8D110BD2C000000D9
:1027F000480000004EF68851CEF20001086840F40F
:1028000070000860BFF34F8FBFF36F8F4FF0007001
:10281000E1EE100A7047000009FFFFFF8C00000086
:10282000D02000200000000039FFFFFF3002000030
:102830006200000000000020446163423D25642CDA
:10284000204144535F31333D25642C204144535F84
:102850006D563D25660D0A000120C046002801D0B6
:10286000FFF7B4FF0020C046C046FFF711FE00F09E
:1028700000F800F001B800000746384600F002F802
:10288000FBE7000080B5C046C046024A1100182090
:10289000ABBEFBE72600020065414443313D2564A1
:1028A0002C2065414443323D25640D0A00000000A0
:1028B0007047FEE7FEE7FEE7FEE7704770477047A8
:1028C00080B5FFF702F901BD38B504460D4628462C
:1028D00000F006F8A84218BF0024204632BD0000D0
:1028E0000149FFF75CBE00BF0400002000000000AB
:1028F000000000000102030406070809434B5F5370
:102900005953202069732025640D0A00434B5F4111
:102910004842202069732025640D0A00434B5F4123
:102920005042312069732025640D0A00434B5F41FA
:102930005042322069732025640D0A000148804707
:1029400001480047D12200084D290008C046C04672
:10295000FFF750FFFFF780FF0000000001020304B3
:10296000000000000102030400FEFF46FFF7FEBF67
:10297000FFF7FEBFFFF7FEBFFFF7FEBFFFF7FEBF8B
:10298000FFF7FEBFFFF7FEBFFFF7FEBFFFF7FEBF7B
:10299000FFF7FEBFFFF7FEBFFFF7FEBFFFF7FEBF6B
:1029A000FFF7FEBFFFF7FEBFFFF7FEBFFFF7FEBF5B
:1029B000FFF7FEBFFFF7FEBFFFF7FEBFFFF7FEBF4B
:1029C000FFF7FEBFFFF7FEBFFFF7FEBFFFF7FEBF3B
:1029D000FFF7FEBFFFF7FEBFFFF7FEBFFFF7FEBF2B
:1029E000FFF7FEBFFFF7FEBFFFF7FEBFFFF7FEBF1B
:1029F000FFF7FEBFFFF7FEBFFFF7FEBFFFF7FEBF0B
:102A0000FFF7FEBFFFF7FEBFFFF7FEBFFFF7FEBFFA
:102A1000FFF7FEBFFFF7FEBFFFF7FEBFFFF7FEBFEA
:102A2000FFF7FEBFFFF7FEBFFFF7FEBFFFF7FEBFDA
:102A3000FFF7FEBFFFF7FEBFFFF7FEBFFFF7FEBFCA
:102A4000FFF7FEBFFFF7FEBFFFF7FEBFFFF7FEBFBA
:102A5000FFF7FEBFFFF7FEBFFFF7FEBF23000E2705
:102A60000702040101D020002020210020D02000F6
:102A700020D0200020D0200020410000202800008D
:0D2A800020C400F8FFDC00FAFFC600004093
:040000050800294D79
:00000001FF
